{"abi":[{"type":"constructor","inputs":[{"name":"_basisPoints","type":"uint256","internalType":"uint256"}],"stateMutability":"nonpayable"},{"type":"receive","stateMutability":"payable"},{"type":"function","name":"COMMISSION_BASIS_POINTS","inputs":[],"outputs":[{"name":"","type":"uint256","internalType":"uint256"}],"stateMutability":"view"},{"type":"function","name":"MAX_PARTICIPANTS","inputs":[],"outputs":[{"name":"","type":"uint256","internalType":"uint256"}],"stateMutability":"view"},{"type":"function","name":"acceptChallenge","inputs":[{"name":"id","type":"uint256","internalType":"uint256"},{"name":"_stake","type":"uint256","internalType":"uint256"},{"name":"_token","type":"address","internalType":"address"}],"outputs":[],"stateMutability":"nonpayable"},{"type":"function","name":"addToken","inputs":[{"name":"_token","type":"address","internalType":"address"}],"outputs":[],"stateMutability":"nonpayable"},{"type":"function","name":"claimRefund","inputs":[{"name":"id","type":"uint256","internalType":"uint256"}],"outputs":[],"stateMutability":"nonpayable"},{"type":"function","name":"claimWinnings","inputs":[{"name":"id","type":"uint256","internalType":"uint256"}],"outputs":[],"stateMutability":"nonpayable"},{"type":"function","name":"commissionBalances","inputs":[{"name":"","type":"address","internalType":"address"}],"outputs":[{"name":"","type":"uint256","internalType":"uint256"}],"stateMutability":"view"},{"type":"function","name":"createChallenge","inputs":[{"name":"_participants","type":"address[]","internalType":"address[]"},{"name":"_stake","type":"uint256","internalType":"uint256"},{"name":"_token","type":"address","internalType":"address"}],"outputs":[{"name":"","type":"uint256","internalType":"uint256"}],"stateMutability":"nonpayable"},{"type":"function","name":"deleteCompletedChallenges","inputs":[],"outputs":[],"stateMutability":"nonpayable"},{"type":"function","name":"getChallenge","inputs":[{"name":"id","type":"uint256","internalType":"uint256"}],"outputs":[{"name":"status","type":"uint8","internalType":"enum ChallengeEscrow.ChallengeStatus"},{"name":"winner","type":"address","internalType":"address"},{"name":"totalStake","type":"uint256","internalType":"uint256"},{"name":"requiredStake","type":"uint256","internalType":"uint256"},{"name":"participantArray","type":"address[]","internalType":"address[]"}],"stateMutability":"view"},{"type":"function","name":"getParticipant","inputs":[{"name":"id","type":"uint256","internalType":"uint256"},{"name":"user","type":"address","internalType":"address"}],"outputs":[{"name":"walletAddress","type":"address","internalType":"address"},{"name":"stake","type":"uint256","internalType":"uint256"},{"name":"hasClaimed","type":"bool","internalType":"bool"}],"stateMutability":"view"},{"type":"function","name":"owner","inputs":[],"outputs":[{"name":"","type":"address","internalType":"address"}],"stateMutability":"view"},{"type":"function","name":"setChallengeStatus","inputs":[{"name":"id","type":"uint256","internalType":"uint256"},{"name":"status","type":"uint8","internalType":"enum ChallengeEscrow.ChallengeStatus"}],"outputs":[],"stateMutability":"nonpayable"},{"type":"function","name":"setCommissionBasisPoints","inputs":[{"name":"_basisPoints","type":"uint256","internalType":"uint256"}],"outputs":[],"stateMutability":"nonpayable"},{"type":"function","name":"setWinner","inputs":[{"name":"id","type":"uint256","internalType":"uint256"},{"name":"winner","type":"address","internalType":"address"}],"outputs":[],"stateMutability":"nonpayable"},{"type":"function","name":"supportedTokens","inputs":[{"name":"","type":"address","internalType":"address"}],"outputs":[{"name":"","type":"address","internalType":"contract IERC20"}],"stateMutability":"view"},{"type":"function","name":"supportedTokensArray","inputs":[{"name":"","type":"uint256","internalType":"uint256"}],"outputs":[{"name":"","type":"address","internalType":"address"}],"stateMutability":"view"},{"type":"function","name":"withdrawCommission","inputs":[{"name":"_token","type":"address","internalType":"address"}],"outputs":[],"stateMutability":"nonpayable"},{"type":"event","name":"ChallengeAccepted","inputs":[{"name":"id","type":"uint256","indexed":true,"internalType":"uint256"},{"name":"participant","type":"address","indexed":true,"internalType":"address"},{"name":"amount","type":"uint256","indexed":false,"internalType":"uint256"}],"anonymous":false},{"type":"event","name":"ChallengeCreated","inputs":[{"name":"id","type":"uint256","indexed":true,"internalType":"uint256"},{"name":"creator","type":"address","indexed":true,"internalType":"address"}],"anonymous":false},{"type":"event","name":"ChallengeDeleted","inputs":[{"name":"id","type":"uint256","indexed":true,"internalType":"uint256"}],"anonymous":false},{"type":"event","name":"ChallengeStatusUpdated","inputs":[{"name":"id","type":"uint256","indexed":true,"internalType":"uint256"},{"name":"status","type":"uint8","indexed":false,"internalType":"enum ChallengeEscrow.ChallengeStatus"}],"anonymous":false},{"type":"event","name":"Claim","inputs":[{"name":"participant","type":"address","indexed":true,"internalType":"address"},{"name":"amount","type":"uint256","indexed":false,"internalType":"uint256"}],"anonymous":false},{"type":"event","name":"CompletedChallengesDeleted","inputs":[{"name":"ids","type":"uint256[]","indexed":true,"internalType":"uint256[]"}],"anonymous":false},{"type":"event","name":"WinnerSet","inputs":[{"name":"id","type":"uint256","indexed":true,"internalType":"uint256"},{"name":"winner","type":"address","indexed":true,"internalType":"address"}],"anonymous":false},{"type":"error","name":"AlreadyAccepted","inputs":[]},{"type":"error","name":"AlreadyClaimed","inputs":[]},{"type":"error","name":"ChallengeNotActive","inputs":[]},{"type":"error","name":"ClaimsNotAllowed","inputs":[]},{"type":"error","name":"InsufficientAmount","inputs":[]},{"type":"error","name":"InvalidToken","inputs":[]},{"type":"error","name":"MaxParticipantsExceeded","inputs":[]},{"type":"error","name":"NotAccepted","inputs":[]},{"type":"error","name":"NotCancelled","inputs":[]},{"type":"error","name":"NotCompleted","inputs":[]},{"type":"error","name":"NotOwner","inputs":[]},{"type":"error","name":"NotParticipant","inputs":[]},{"type":"error","name":"NotWinner","inputs":[]},{"type":"error","name":"ReentrancyGuardReentrantCall","inputs":[]},{"type":"error","name":"SafeERC20FailedOperation","inputs":[{"name":"token","type":"address","internalType":"address"}]}],"bytecode":{"object":"0x6080604052348015600e575f5ffd5b50604051612f38380380612f388339818101604052810190602e919060b3565b60015f819055503360025f6101000a81548173ffffffffffffffffffffffffffffffffffffffff021916908373ffffffffffffffffffffffffffffffffffffffff160217905550806001819055505060d9565b5f5ffd5b5f819050919050565b6095816085565b8114609e575f5ffd5b50565b5f8151905060ad81608e565b92915050565b5f6020828403121560c55760c46081565b5b5f60d08482850160a1565b91505092915050565b612e52806100e65f395ff3fe60806040526004361061010c575f3560e01c80638da5cb5b11610094578063dc62f9ef11610063578063dc62f9ef1461038b578063de1f6ea8146103a1578063e7cd6ca2146103cb578063f00f692114610407578063f3baf0701461042f57610113565b80638da5cb5b146102d55780639c623683146102ff578063b264298714610327578063d48bfca71461036357610113565b80635b7baf64116100db5780635b7baf64146101f9578063677bd9ff1461022157806368c4ac2614610249578063755923ff1461028557806380ce1d60146102ad57610113565b806316c58d04146101175780631bdd4b741461013f5780632e9b32011461017f57806335f3ad7a146101bb57610113565b3661011357005b5f5ffd5b348015610122575f5ffd5b5061013d60048036038101906101389190612591565b610459565b005b34801561014a575f5ffd5b50610165600480360381019061016091906125ef565b610650565b604051610176959493929190612762565b60405180910390f35b34801561018a575f5ffd5b506101a560048036038101906101a091906125ef565b610745565b6040516101b291906127ba565b60405180910390f35b3480156101c6575f5ffd5b506101e160048036038101906101dc91906127d3565b610780565b6040516101f09392919061282b565b60405180910390f35b348015610204575f5ffd5b5061021f600480360381019061021a91906125ef565b61081c565b005b34801561022c575f5ffd5b50610247600480360381019061024291906125ef565b610acb565b005b348015610254575f5ffd5b5061026f600480360381019061026a9190612591565b610e3d565b60405161027c91906128bb565b60405180910390f35b348015610290575f5ffd5b506102ab60048036038101906102a691906128d4565b610e6d565b005b3480156102b8575f5ffd5b506102d360048036038101906102ce9190612947565b6112e3565b005b3480156102e0575f5ffd5b506102e96113e0565b6040516102f691906127ba565b60405180910390f35b34801561030a575f5ffd5b50610325600480360381019061032091906127d3565b611405565b005b348015610332575f5ffd5b5061034d60048036038101906103489190612591565b6115f9565b60405161035a9190612985565b60405180910390f35b34801561036e575f5ffd5b5061038960048036038101906103849190612591565b61160e565b005b348015610396575f5ffd5b5061039f611772565b005b3480156103ac575f5ffd5b506103b5611bf8565b6040516103c29190612985565b60405180910390f35b3480156103d6575f5ffd5b506103f160048036038101906103ec91906129ff565b611bfe565b6040516103fe9190612985565b60405180910390f35b348015610412575f5ffd5b5061042d600480360381019061042891906125ef565b61220a565b005b34801561043a575f5ffd5b506104436122ea565b6040516104509190612985565b60405180910390f35b60025f9054906101000a900473ffffffffffffffffffffffffffffffffffffffff1673ffffffffffffffffffffffffffffffffffffffff163373ffffffffffffffffffffffffffffffffffffffff16146104df576040517f30cd747100000000000000000000000000000000000000000000000000000000815260040160405180910390fd5b5f73ffffffffffffffffffffffffffffffffffffffff168173ffffffffffffffffffffffffffffffffffffffff1603610544576040517fc1ab6dc100000000000000000000000000000000000000000000000000000000815260040160405180910390fd5b5f60035f8373ffffffffffffffffffffffffffffffffffffffff1673ffffffffffffffffffffffffffffffffffffffff1681526020019081526020015f205490505f81036105be576040517f5945ea5600000000000000000000000000000000000000000000000000000000815260040160405180910390fd5b5f60035f8473ffffffffffffffffffffffffffffffffffffffff1673ffffffffffffffffffffffffffffffffffffffff1681526020019081526020015f208190555061064c60025f9054906101000a900473ffffffffffffffffffffffffffffffffffffffff16828473ffffffffffffffffffffffffffffffffffffffff166122ef9092919063ffffffff16565b5050565b5f5f5f5f60605f60065f8881526020019081526020015f209050806004015f9054906101000a900460ff16815f015f9054906101000a900473ffffffffffffffffffffffffffffffffffffffff1682600201548360030154846006018080548060200260200160405190810160405280929190818152602001828054801561072a57602002820191905f5260205f20905b815f9054906101000a900473ffffffffffffffffffffffffffffffffffffffff1673ffffffffffffffffffffffffffffffffffffffff16815260200190600101908083116106e1575b50505050509050955095509550955095505091939590929450565b60058181548110610754575f80fd5b905f5260205f20015f915054906101000a900473ffffffffffffffffffffffffffffffffffffffff1681565b5f5f5f5f60065f8781526020019081526020015f206005015f8673ffffffffffffffffffffffffffffffffffffffff1673ffffffffffffffffffffffffffffffffffffffff1681526020019081526020015f209050805f015f9054906101000a900473ffffffffffffffffffffffffffffffffffffffff168160010154826002015f9054906101000a900460ff16935093509350509250925092565b61082461236e565b5f60065f8381526020019081526020015f2090505f816005015f3373ffffffffffffffffffffffffffffffffffffffff1673ffffffffffffffffffffffffffffffffffffffff1681526020019081526020015f2090506002600481111561088e5761088d61261a565b5b826004015f9054906101000a900460ff1660048111156108b1576108b061261a565b5b146108e8576040517f40d3c8be00000000000000000000000000000000000000000000000000000000815260040160405180910390fd5b806002015f9054906101000a900460ff1615610930576040517f646cf55800000000000000000000000000000000000000000000000000000000815260040160405180910390fd5b806001015482600201541015610972576040517f1513aadb00000000000000000000000000000000000000000000000000000000815260040160405180910390fd5b5f8160010154905080836002015f82825461098d9190612a9d565b925050819055506001826002015f6101000a81548160ff0219169083151502179055506109fe3382856001015f9054906101000a900473ffffffffffffffffffffffffffffffffffffffff1673ffffffffffffffffffffffffffffffffffffffff166122ef9092919063ffffffff16565b3373ffffffffffffffffffffffffffffffffffffffff167f47cee97cb7acd717b3c0aa1435d004cd5b3c8c57d70dbceb4e4458bbd60e39d482604051610a449190612985565b60405180910390a25f836002015403610abd576004836004015f6101000a81548160ff02191690836004811115610a7e57610a7d61261a565b5b0217905550837f30c74fda3a9f1359aab44880f5e640842f90cbed4e11d9fbf0ca69a8e6a84a806004604051610ab49190612ad0565b60405180910390a25b505050610ac86123b2565b50565b610ad361236e565b5f60065f8381526020019081526020015f2090505f816005015f3373ffffffffffffffffffffffffffffffffffffffff1673ffffffffffffffffffffffffffffffffffffffff1681526020019081526020015f2090503373ffffffffffffffffffffffffffffffffffffffff16825f015f9054906101000a900473ffffffffffffffffffffffffffffffffffffffff1673ffffffffffffffffffffffffffffffffffffffff1614610bb0576040517f618c724200000000000000000000000000000000000000000000000000000000815260040160405180910390fd5b60036004811115610bc457610bc361261a565b5b826004015f9054906101000a900460ff166004811115610be757610be661261a565b5b14610c1e576040517f5fd76e0400000000000000000000000000000000000000000000000000000000815260040160405180910390fd5b806002015f9054906101000a900460ff1615610c66576040517f646cf55800000000000000000000000000000000000000000000000000000000815260040160405180910390fd5b5f6127106001548460020154610c7c9190612ae9565b610c869190612b57565b90505f818460020154610c999190612a9d565b90506001836002015f6101000a81548160ff0219169083151502179055506004846004015f6101000a81548160ff02191690836004811115610cde57610cdd61261a565b5b0217905550610d313382866001015f9054906101000a900473ffffffffffffffffffffffffffffffffffffffff1673ffffffffffffffffffffffffffffffffffffffff166122ef9092919063ffffffff16565b8160035f866001015f9054906101000a900473ffffffffffffffffffffffffffffffffffffffff1673ffffffffffffffffffffffffffffffffffffffff1673ffffffffffffffffffffffffffffffffffffffff1681526020019081526020015f205f828254610da09190612b87565b925050819055503373ffffffffffffffffffffffffffffffffffffffff167f47cee97cb7acd717b3c0aa1435d004cd5b3c8c57d70dbceb4e4458bbd60e39d482604051610ded9190612985565b60405180910390a2847f30c74fda3a9f1359aab44880f5e640842f90cbed4e11d9fbf0ca69a8e6a84a806004604051610e269190612ad0565b60405180910390a250505050610e3a6123b2565b50565b6004602052805f5260405f205f915054906101000a900473ffffffffffffffffffffffffffffffffffffffff1681565b5f60065f8581526020019081526020015f2090505f816005015f3373ffffffffffffffffffffffffffffffffffffffff1673ffffffffffffffffffffffffffffffffffffffff1681526020019081526020015f2090505f6004811115610ed657610ed561261a565b5b826004015f9054906101000a900460ff166004811115610ef957610ef861261a565b5b14610f30576040517fbeb11d3b00000000000000000000000000000000000000000000000000000000815260040160405180910390fd5b8273ffffffffffffffffffffffffffffffffffffffff16826001015f9054906101000a900473ffffffffffffffffffffffffffffffffffffffff1673ffffffffffffffffffffffffffffffffffffffff1614610fb8576040517fc1ab6dc100000000000000000000000000000000000000000000000000000000815260040160405180910390fd5b5f73ffffffffffffffffffffffffffffffffffffffff16815f015f9054906101000a900473ffffffffffffffffffffffffffffffffffffffff1673ffffffffffffffffffffffffffffffffffffffff160361103f576040517fe438f8ce00000000000000000000000000000000000000000000000000000000815260040160405180910390fd5b5f81600101541461107c576040517f1aa8064c00000000000000000000000000000000000000000000000000000000815260040160405180910390fd5b81600301548410156110ba576040517f5945ea5600000000000000000000000000000000000000000000000000000000815260040160405180910390fd5b61114333308660045f8873ffffffffffffffffffffffffffffffffffffffff1673ffffffffffffffffffffffffffffffffffffffff1681526020019081526020015f205f9054906101000a900473ffffffffffffffffffffffffffffffffffffffff1673ffffffffffffffffffffffffffffffffffffffff166123bb909392919063ffffffff16565b83816001018190555083826002015f82825461115f9190612b87565b925050819055505f600190505f5f90505b836006018054905081101561121f578360030154846005015f86600601848154811061119f5761119e612bba565b5b905f5260205f20015f9054906101000a900473ffffffffffffffffffffffffffffffffffffffff1673ffffffffffffffffffffffffffffffffffffffff1673ffffffffffffffffffffffffffffffffffffffff1681526020019081526020015f20600101541015611212575f915061121f565b8080600101915050611170565b50801561128c576001836004015f6101000a81548160ff0219169083600481111561124d5761124c61261a565b5b0217905550857f30c74fda3a9f1359aab44880f5e640842f90cbed4e11d9fbf0ca69a8e6a84a8060016040516112839190612ad0565b60405180910390a25b3373ffffffffffffffffffffffffffffffffffffffff16867f92908348abc2acb40e8d36acdad97909db4110254e1625c0509520a68bd999c9876040516112d39190612985565b60405180910390a3505050505050565b60025f9054906101000a900473ffffffffffffffffffffffffffffffffffffffff1673ffffffffffffffffffffffffffffffffffffffff163373ffffffffffffffffffffffffffffffffffffffff1614611369576040517f30cd747100000000000000000000000000000000000000000000000000000000815260040160405180910390fd5b8060065f8481526020019081526020015f206004015f6101000a81548160ff0219169083600481111561139f5761139e61261a565b5b0217905550817f30c74fda3a9f1359aab44880f5e640842f90cbed4e11d9fbf0ca69a8e6a84a80826040516113d49190612ad0565b60405180910390a25050565b60025f9054906101000a900473ffffffffffffffffffffffffffffffffffffffff1681565b60025f9054906101000a900473ffffffffffffffffffffffffffffffffffffffff1673ffffffffffffffffffffffffffffffffffffffff163373ffffffffffffffffffffffffffffffffffffffff161461148b576040517f30cd747100000000000000000000000000000000000000000000000000000000815260040160405180910390fd5b5f73ffffffffffffffffffffffffffffffffffffffff1660065f8481526020019081526020015f206005015f8373ffffffffffffffffffffffffffffffffffffffff1673ffffffffffffffffffffffffffffffffffffffff1681526020019081526020015f205f015f9054906101000a900473ffffffffffffffffffffffffffffffffffffffff1673ffffffffffffffffffffffffffffffffffffffff1603611560576040517fe438f8ce00000000000000000000000000000000000000000000000000000000815260040160405180910390fd5b8060065f8481526020019081526020015f205f015f6101000a81548173ffffffffffffffffffffffffffffffffffffffff021916908373ffffffffffffffffffffffffffffffffffffffff1602179055508073ffffffffffffffffffffffffffffffffffffffff16827f44fd60df9b05a22172cc43446c2ff1abb74d6c6ce938acd70bd3ee1ea2bf595d60405160405180910390a35050565b6003602052805f5260405f205f915090505481565b60025f9054906101000a900473ffffffffffffffffffffffffffffffffffffffff1673ffffffffffffffffffffffffffffffffffffffff163373ffffffffffffffffffffffffffffffffffffffff1614611694576040517f30cd747100000000000000000000000000000000000000000000000000000000815260040160405180910390fd5b8060045f8373ffffffffffffffffffffffffffffffffffffffff1673ffffffffffffffffffffffffffffffffffffffff1681526020019081526020015f205f6101000a81548173ffffffffffffffffffffffffffffffffffffffff021916908373ffffffffffffffffffffffffffffffffffffffff160217905550600581908060018154018082558091505060019003905f5260205f20015f9091909190916101000a81548173ffffffffffffffffffffffffffffffffffffffff021916908373ffffffffffffffffffffffffffffffffffffffff16021790555050565b60025f9054906101000a900473ffffffffffffffffffffffffffffffffffffffff1673ffffffffffffffffffffffffffffffffffffffff163373ffffffffffffffffffffffffffffffffffffffff16146117f8576040517f30cd747100000000000000000000000000000000000000000000000000000000815260040160405180910390fd5b5f60078054905067ffffffffffffffff81111561181857611817612be7565b5b6040519080825280602002602001820160405280156118465781602001602082028036833780820191505090505b5090505f600780548060200260200160405190810160405280929190818152602001828054801561189457602002820191905f5260205f20905b815481526020019060010190808311611880575b5050505050905060075f6118a891906124d8565b5f5f90505f5f90505b8251811015611aff575f8382815181106118ce576118cd612bba565b5b602002602001015190505f60065f8381526020019081526020015f2090506004808111156118ff576118fe61261a565b5b816004015f9054906101000a900460ff1660048111156119225761192161261a565b5b03611ac9575f5f90505b8160060180549050811015611a0657816005015f83600601838154811061195657611955612bba565b5b905f5260205f20015f9054906101000a900473ffffffffffffffffffffffffffffffffffffffff1673ffffffffffffffffffffffffffffffffffffffff1673ffffffffffffffffffffffffffffffffffffffff1681526020019081526020015f205f5f82015f6101000a81549073ffffffffffffffffffffffffffffffffffffffff0219169055600182015f9055600282015f6101000a81549060ff02191690555050808060010191505061192c565b5060065f8381526020019081526020015f205f5f82015f6101000a81549073ffffffffffffffffffffffffffffffffffffffff0219169055600182015f6101000a81549073ffffffffffffffffffffffffffffffffffffffff0219169055600282015f9055600382015f9055600482015f6101000a81549060ff0219169055600682015f611a9491906124f6565b505081868581518110611aaa57611aa9612bba565b5b6020026020010181815250508380611ac190612c14565b945050611af0565b600782908060018154018082558091505060019003905f5260205f20015f90919091909150555b505080806001019150506118b1565b5081516007805490501015611bf3575f8167ffffffffffffffff811115611b2957611b28612be7565b5b604051908082528060200260200182016040528015611b575781602001602082028036833780820191505090505b5090505f5f90505b82811015611bae57848181518110611b7a57611b79612bba565b5b6020026020010151828281518110611b9557611b94612bba565b5b6020026020010181815250508080600101915050611b5f565b5080604051611bbd9190612d0c565b60405180910390207f21468011b8061ecf9fd001704275feb14aae85c7961408d34ab4e694a18a3cc660405160405180910390a2505b505050565b60015481565b5f5f73ffffffffffffffffffffffffffffffffffffffff1660045f8473ffffffffffffffffffffffffffffffffffffffff1673ffffffffffffffffffffffffffffffffffffffff1681526020019081526020015f205f9054906101000a900473ffffffffffffffffffffffffffffffffffffffff1673ffffffffffffffffffffffffffffffffffffffff1603611cc0576040517fc1ab6dc100000000000000000000000000000000000000000000000000000000815260040160405180910390fd5b5f8311611cf9576040517f5945ea5600000000000000000000000000000000000000000000000000000000815260040160405180910390fd5b600a600186869050611d0b9190612b87565b1115611d43576040517f475b229200000000000000000000000000000000000000000000000000000000815260040160405180910390fd5b611dcc33308560045f8773ffffffffffffffffffffffffffffffffffffffff1673ffffffffffffffffffffffffffffffffffffffff1681526020019081526020015f205f9054906101000a900473ffffffffffffffffffffffffffffffffffffffff1673ffffffffffffffffffffffffffffffffffffffff166123bb909392919063ffffffff16565b5f60085f815480929190611ddf90612c14565b9190505590505f60065f8381526020019081526020015f209050600782908060018154018082558091505060019003905f5260205f20015f90919091909150558481600301819055508481600201819055505f816004015f6101000a81548160ff02191690836004811115611e5757611e5661261a565b5b021790555083816001015f6101000a81548173ffffffffffffffffffffffffffffffffffffffff021916908373ffffffffffffffffffffffffffffffffffffffff16021790555060405180606001604052803373ffffffffffffffffffffffffffffffffffffffff1681526020018681526020015f1515815250816005015f3373ffffffffffffffffffffffffffffffffffffffff1673ffffffffffffffffffffffffffffffffffffffff1681526020019081526020015f205f820151815f015f6101000a81548173ffffffffffffffffffffffffffffffffffffffff021916908373ffffffffffffffffffffffffffffffffffffffff160217905550602082015181600101556040820151816002015f6101000a81548160ff0219169083151502179055509050508060060133908060018154018082558091505060019003905f5260205f20015f9091909190916101000a81548173ffffffffffffffffffffffffffffffffffffffff021916908373ffffffffffffffffffffffffffffffffffffffff1602179055505f5f90505b878790508110156121b85760405180606001604052808989848181106120105761200f612bba565b5b90506020020160208101906120259190612591565b73ffffffffffffffffffffffffffffffffffffffff1681526020015f81526020015f1515815250826005015f8a8a8581811061206457612063612bba565b5b90506020020160208101906120799190612591565b73ffffffffffffffffffffffffffffffffffffffff1673ffffffffffffffffffffffffffffffffffffffff1681526020019081526020015f205f820151815f015f6101000a81548173ffffffffffffffffffffffffffffffffffffffff021916908373ffffffffffffffffffffffffffffffffffffffff160217905550602082015181600101556040820151816002015f6101000a81548160ff0219169083151502179055509050508160060188888381811061213957612138612bba565b5b905060200201602081019061214e9190612591565b908060018154018082558091505060019003905f5260205f20015f9091909190916101000a81548173ffffffffffffffffffffffffffffffffffffffff021916908373ffffffffffffffffffffffffffffffffffffffff1602179055508080600101915050611fe7565b503373ffffffffffffffffffffffffffffffffffffffff16827f83a97ccca8e136a4d58fd664739225fcfe9db9a5b0bebf35df44614f2aa9b63a60405160405180910390a38192505050949350505050565b60025f9054906101000a900473ffffffffffffffffffffffffffffffffffffffff1673ffffffffffffffffffffffffffffffffffffffff163373ffffffffffffffffffffffffffffffffffffffff1614612290576040517f30cd747100000000000000000000000000000000000000000000000000000000815260040160405180910390fd5b5f811180156122a157506127108111155b6122e0576040517f08c379a00000000000000000000000000000000000000000000000000000000081526004016122d790612da2565b60405180910390fd5b8060018190555050565b600a81565b612369838473ffffffffffffffffffffffffffffffffffffffff1663a9059cbb8585604051602401612322929190612dc0565b604051602081830303815290604052915060e01b6020820180517bffffffffffffffffffffffffffffffffffffffffffffffffffffffff838183161783525050505061243d565b505050565b60025f54036123a9576040517f3ee5aeb500000000000000000000000000000000000000000000000000000000815260040160405180910390fd5b60025f81905550565b60015f81905550565b612437848573ffffffffffffffffffffffffffffffffffffffff166323b872dd8686866040516024016123f093929190612de7565b604051602081830303815290604052915060e01b6020820180517bffffffffffffffffffffffffffffffffffffffffffffffffffffffff838183161783525050505061243d565b50505050565b5f5f60205f8451602086015f885af18061245c576040513d5f823e3d81fd5b3d92505f519150505f8214612475576001811415612490565b5f8473ffffffffffffffffffffffffffffffffffffffff163b145b156124d257836040517f5274afe70000000000000000000000000000000000000000000000000000000081526004016124c991906127ba565b60405180910390fd5b50505050565b5080545f8255905f5260205f20908101906124f39190612514565b50565b5080545f8255905f5260205f20908101906125119190612514565b50565b5b8082111561252b575f815f905550600101612515565b5090565b5f5ffd5b5f5ffd5b5f73ffffffffffffffffffffffffffffffffffffffff82169050919050565b5f61256082612537565b9050919050565b61257081612556565b811461257a575f5ffd5b50565b5f8135905061258b81612567565b92915050565b5f602082840312156125a6576125a561252f565b5b5f6125b38482850161257d565b91505092915050565b5f819050919050565b6125ce816125bc565b81146125d8575f5ffd5b50565b5f813590506125e9816125c5565b92915050565b5f602082840312156126045761260361252f565b5b5f612611848285016125db565b91505092915050565b7f4e487b71000000000000000000000000000000000000000000000000000000005f52602160045260245ffd5b600581106126585761265761261a565b5b50565b5f81905061266882612647565b919050565b5f6126778261265b565b9050919050565b6126878161266d565b82525050565b61269681612556565b82525050565b6126a5816125bc565b82525050565b5f81519050919050565b5f82825260208201905092915050565b5f819050602082019050919050565b6126dd81612556565b82525050565b5f6126ee83836126d4565b60208301905092915050565b5f602082019050919050565b5f612710826126ab565b61271a81856126b5565b9350612725836126c5565b805f5b8381101561275557815161273c88826126e3565b9750612747836126fa565b925050600181019050612728565b5085935050505092915050565b5f60a0820190506127755f83018861267e565b612782602083018761268d565b61278f604083018661269c565b61279c606083018561269c565b81810360808301526127ae8184612706565b90509695505050505050565b5f6020820190506127cd5f83018461268d565b92915050565b5f5f604083850312156127e9576127e861252f565b5b5f6127f6858286016125db565b92505060206128078582860161257d565b9150509250929050565b5f8115159050919050565b61282581612811565b82525050565b5f60608201905061283e5f83018661268d565b61284b602083018561269c565b612858604083018461281c565b949350505050565b5f819050919050565b5f61288361287e61287984612537565b612860565b612537565b9050919050565b5f61289482612869565b9050919050565b5f6128a58261288a565b9050919050565b6128b58161289b565b82525050565b5f6020820190506128ce5f8301846128ac565b92915050565b5f5f5f606084860312156128eb576128ea61252f565b5b5f6128f8868287016125db565b9350506020612909868287016125db565b925050604061291a8682870161257d565b9150509250925092565b60058110612930575f5ffd5b50565b5f8135905061294181612924565b92915050565b5f5f6040838503121561295d5761295c61252f565b5b5f61296a858286016125db565b925050602061297b85828601612933565b9150509250929050565b5f6020820190506129985f83018461269c565b92915050565b5f5ffd5b5f5ffd5b5f5ffd5b5f5f83601f8401126129bf576129be61299e565b5b8235905067ffffffffffffffff8111156129dc576129db6129a2565b5b6020830191508360208202830111156129f8576129f76129a6565b5b9250929050565b5f5f5f5f60608587031215612a1757612a1661252f565b5b5f85013567ffffffffffffffff811115612a3457612a33612533565b5b612a40878288016129aa565b94509450506020612a53878288016125db565b9250506040612a648782880161257d565b91505092959194509250565b7f4e487b71000000000000000000000000000000000000000000000000000000005f52601160045260245ffd5b5f612aa7826125bc565b9150612ab2836125bc565b9250828203905081811115612aca57612ac9612a70565b5b92915050565b5f602082019050612ae35f83018461267e565b92915050565b5f612af3826125bc565b9150612afe836125bc565b9250828202612b0c816125bc565b91508282048414831517612b2357612b22612a70565b5b5092915050565b7f4e487b71000000000000000000000000000000000000000000000000000000005f52601260045260245ffd5b5f612b61826125bc565b9150612b6c836125bc565b925082612b7c57612b7b612b2a565b5b828204905092915050565b5f612b91826125bc565b9150612b9c836125bc565b9250828201905080821115612bb457612bb3612a70565b5b92915050565b7f4e487b71000000000000000000000000000000000000000000000000000000005f52603260045260245ffd5b7f4e487b71000000000000000000000000000000000000000000000000000000005f52604160045260245ffd5b5f612c1e826125bc565b91507fffffffffffffffffffffffffffffffffffffffffffffffffffffffffffffffff8203612c5057612c4f612a70565b5b600182019050919050565b5f81519050919050565b5f81905092915050565b5f819050602082019050919050565b612c87816125bc565b82525050565b5f612c988383612c7e565b60208301905092915050565b5f602082019050919050565b5f612cba82612c5b565b612cc48185612c65565b9350612ccf83612c6f565b805f5b83811015612cff578151612ce68882612c8d565b9750612cf183612ca4565b925050600181019050612cd2565b5085935050505092915050565b5f612d178284612cb0565b915081905092915050565b5f82825260208201905092915050565b7f426173697320706f696e7473206d757374206265206265747765656e203120615f8201527f6e642031302c3030300000000000000000000000000000000000000000000000602082015250565b5f612d8c602983612d22565b9150612d9782612d32565b604082019050919050565b5f6020820190508181035f830152612db981612d80565b9050919050565b5f604082019050612dd35f83018561268d565b612de0602083018461269c565b9392505050565b5f606082019050612dfa5f83018661268d565b612e07602083018561268d565b612e14604083018461269c565b94935050505056fea264697066735822122095781e2e9ff9ffc843a9159299b98f51ca752acab7e98f63de5c75f9481bae4164736f6c634300081d0033","linkReferences":{}},"methodIdentifiers":{"COMMISSION_BASIS_POINTS()":"de1f6ea8","MAX_PARTICIPANTS()":"f3baf070","acceptChallenge(uint256,uint256,address)":"755923ff","addToken(address)":"d48bfca7","claimRefund(uint256)":"5b7baf64","claimWinnings(uint256)":"677bd9ff","commissionBalances(address)":"b2642987","createChallenge(address[],uint256,address)":"e7cd6ca2","deleteCompletedChallenges()":"dc62f9ef","getChallenge(uint256)":"1bdd4b74","getParticipant(uint256,address)":"35f3ad7a","owner()":"8da5cb5b","setChallengeStatus(uint256,uint8)":"80ce1d60","setCommissionBasisPoints(uint256)":"f00f6921","setWinner(uint256,address)":"9c623683","supportedTokens(address)":"68c4ac26","supportedTokensArray(uint256)":"2e9b3201","withdrawCommission(address)":"16c58d04"},"id":24}