{"abi":[{"type":"constructor","inputs":[{"name":"_basisPoints","type":"uint256","internalType":"uint256"}],"stateMutability":"nonpayable"},{"type":"receive","stateMutability":"payable"},{"type":"function","name":"COMMISSION_BASIS_POINTS","inputs":[],"outputs":[{"name":"","type":"uint256","internalType":"uint256"}],"stateMutability":"view"},{"type":"function","name":"MAX_PARTICIPANTS","inputs":[],"outputs":[{"name":"","type":"uint256","internalType":"uint256"}],"stateMutability":"view"},{"type":"function","name":"acceptWager","inputs":[{"name":"id","type":"uint256","internalType":"uint256"},{"name":"_stake","type":"uint256","internalType":"uint256"},{"name":"_token","type":"address","internalType":"address"}],"outputs":[],"stateMutability":"nonpayable"},{"type":"function","name":"addToken","inputs":[{"name":"_token","type":"address","internalType":"address"}],"outputs":[],"stateMutability":"nonpayable"},{"type":"function","name":"claimRefund","inputs":[{"name":"id","type":"uint256","internalType":"uint256"}],"outputs":[],"stateMutability":"nonpayable"},{"type":"function","name":"claimWinnings","inputs":[{"name":"id","type":"uint256","internalType":"uint256"}],"outputs":[],"stateMutability":"nonpayable"},{"type":"function","name":"commissionBalances","inputs":[{"name":"","type":"address","internalType":"address"}],"outputs":[{"name":"","type":"uint256","internalType":"uint256"}],"stateMutability":"view"},{"type":"function","name":"createWager","inputs":[{"name":"_participants","type":"address[]","internalType":"address[]"},{"name":"_stake","type":"uint256","internalType":"uint256"},{"name":"_token","type":"address","internalType":"address"}],"outputs":[{"name":"","type":"uint256","internalType":"uint256"}],"stateMutability":"nonpayable"},{"type":"function","name":"deleteCompletedWagers","inputs":[],"outputs":[],"stateMutability":"nonpayable"},{"type":"function","name":"getParticipant","inputs":[{"name":"id","type":"uint256","internalType":"uint256"},{"name":"user","type":"address","internalType":"address"}],"outputs":[{"name":"walletAddress","type":"address","internalType":"address"},{"name":"stake","type":"uint256","internalType":"uint256"},{"name":"hasClaimed","type":"bool","internalType":"bool"}],"stateMutability":"view"},{"type":"function","name":"getSupportedTokens","inputs":[],"outputs":[{"name":"tokens","type":"address[]","internalType":"address[]"},{"name":"erc20Contracts","type":"address[]","internalType":"address[]"}],"stateMutability":"view"},{"type":"function","name":"getWager","inputs":[{"name":"id","type":"uint256","internalType":"uint256"}],"outputs":[{"name":"status","type":"uint8","internalType":"enum WagerEscrow.WagerStatus"},{"name":"winner","type":"address","internalType":"address"},{"name":"totalStake","type":"uint256","internalType":"uint256"},{"name":"requiredStake","type":"uint256","internalType":"uint256"},{"name":"participantArray","type":"address[]","internalType":"address[]"}],"stateMutability":"view"},{"type":"function","name":"owner","inputs":[],"outputs":[{"name":"","type":"address","internalType":"address"}],"stateMutability":"view"},{"type":"function","name":"setCommissionBasisPoints","inputs":[{"name":"_basisPoints","type":"uint256","internalType":"uint256"}],"outputs":[],"stateMutability":"nonpayable"},{"type":"function","name":"setWagerStatus","inputs":[{"name":"id","type":"uint256","internalType":"uint256"},{"name":"status","type":"uint8","internalType":"enum WagerEscrow.WagerStatus"}],"outputs":[],"stateMutability":"nonpayable"},{"type":"function","name":"setWinner","inputs":[{"name":"id","type":"uint256","internalType":"uint256"},{"name":"winner","type":"address","internalType":"address"}],"outputs":[],"stateMutability":"nonpayable"},{"type":"function","name":"supportedTokens","inputs":[{"name":"","type":"address","internalType":"address"}],"outputs":[{"name":"","type":"address","internalType":"contract IERC20"}],"stateMutability":"view"},{"type":"function","name":"supportedTokensArray","inputs":[{"name":"","type":"uint256","internalType":"uint256"}],"outputs":[{"name":"","type":"address","internalType":"address"}],"stateMutability":"view"},{"type":"function","name":"withdrawCommission","inputs":[{"name":"_token","type":"address","internalType":"address"}],"outputs":[],"stateMutability":"nonpayable"},{"type":"event","name":"Claim","inputs":[{"name":"participant","type":"address","indexed":true,"internalType":"address"},{"name":"amount","type":"uint256","indexed":false,"internalType":"uint256"}],"anonymous":false},{"type":"event","name":"CompletedWagersDeleted","inputs":[{"name":"ids","type":"uint256[]","indexed":true,"internalType":"uint256[]"}],"anonymous":false},{"type":"event","name":"WagerAccepted","inputs":[{"name":"id","type":"uint256","indexed":true,"internalType":"uint256"},{"name":"participant","type":"address","indexed":true,"internalType":"address"},{"name":"amount","type":"uint256","indexed":false,"internalType":"uint256"}],"anonymous":false},{"type":"event","name":"WagerCreated","inputs":[{"name":"id","type":"uint256","indexed":true,"internalType":"uint256"},{"name":"creator","type":"address","indexed":true,"internalType":"address"}],"anonymous":false},{"type":"event","name":"WagerDeleted","inputs":[{"name":"id","type":"uint256","indexed":true,"internalType":"uint256"}],"anonymous":false},{"type":"event","name":"WagerStatusUpdated","inputs":[{"name":"id","type":"uint256","indexed":true,"internalType":"uint256"},{"name":"status","type":"uint8","indexed":false,"internalType":"enum WagerEscrow.WagerStatus"}],"anonymous":false},{"type":"event","name":"WinnerSet","inputs":[{"name":"id","type":"uint256","indexed":true,"internalType":"uint256"},{"name":"winner","type":"address","indexed":true,"internalType":"address"}],"anonymous":false},{"type":"error","name":"ReentrancyGuardReentrantCall","inputs":[]},{"type":"error","name":"SafeERC20FailedOperation","inputs":[{"name":"token","type":"address","internalType":"address"}]}],"bytecode":{"object":"0x6080604052348015600e575f5ffd5b506040516138ec3803806138ec8339818101604052810190602e919060b3565b60015f819055503360025f6101000a81548173ffffffffffffffffffffffffffffffffffffffff021916908373ffffffffffffffffffffffffffffffffffffffff160217905550806001819055505060d9565b5f5ffd5b5f819050919050565b6095816085565b8114609e575f5ffd5b50565b5f8151905060ad81608e565b92915050565b5f6020828403121560c55760c46081565b5b5f60d08482850160a1565b91505092915050565b613806806100e65f395ff3fe608060405260043610610117575f3560e01c80638da5cb5b1161009f578063d48bfca711610063578063d48bfca7146103c3578063de1f6ea8146103eb578063f00f692114610415578063f3baf0701461043d578063f84cc579146104675761011e565b80638da5cb5b146102e25780639c6236831461030c578063b12b3f9114610334578063b26429871461035c578063d3c7c2c7146103985761011e565b80633dc44c0b116100e65780633dc44c0b146102005780635b7baf6414610216578063677bd9ff1461023e57806368c4ac26146102665780637a2756f2146102a25761011e565b806305385fe91461012257806316c58d041461015e5780632e9b32011461018657806335f3ad7a146101c25761011e565b3661011e57005b5f5ffd5b34801561012d575f5ffd5b5061014860048036038101906101439190612924565b61048f565b60405161015591906129a4565b60405180910390f35b348015610169575f5ffd5b50610184600480360381019061017f91906129bd565b610ab6565b005b348015610191575f5ffd5b506101ac60048036038101906101a791906129e8565b610cc8565b6040516101b99190612a22565b60405180910390f35b3480156101cd575f5ffd5b506101e860048036038101906101e39190612a3b565b610d03565b6040516101f793929190612a93565b60405180910390f35b34801561020b575f5ffd5b50610214610d9f565b005b348015610221575f5ffd5b5061023c600480360381019061023791906129e8565b61122e565b005b348015610249575f5ffd5b50610264600480360381019061025f91906129e8565b6114f8565b005b348015610271575f5ffd5b5061028c600480360381019061028791906129bd565b611885565b6040516102999190612b23565b60405180910390f35b3480156102ad575f5ffd5b506102c860048036038101906102c391906129e8565b6118b5565b6040516102d9959493929190612c66565b60405180910390f35b3480156102ed575f5ffd5b506102f66119aa565b6040516103039190612a22565b60405180910390f35b348015610317575f5ffd5b50610332600480360381019061032d9190612a3b565b6119cf565b005b34801561033f575f5ffd5b5061035a60048036038101906103559190612cbe565b611bd5565b005b348015610367575f5ffd5b50610382600480360381019061037d91906129bd565b612078565b60405161038f91906129a4565b60405180910390f35b3480156103a3575f5ffd5b506103ac61208d565b6040516103ba929190612d0e565b60405180910390f35b3480156103ce575f5ffd5b506103e960048036038101906103e491906129bd565b612287565b005b3480156103f6575f5ffd5b506103ff6123f4565b60405161040c91906129a4565b60405180910390f35b348015610420575f5ffd5b5061043b600480360381019061043691906129e8565b6123fa565b005b348015610448575f5ffd5b506104516124e3565b60405161045e91906129a4565b60405180910390f35b348015610472575f5ffd5b5061048d60048036038101906104889190612d66565b6124e8565b005b5f5f73ffffffffffffffffffffffffffffffffffffffff1660045f8473ffffffffffffffffffffffffffffffffffffffff1673ffffffffffffffffffffffffffffffffffffffff1681526020019081526020015f205f9054906101000a900473ffffffffffffffffffffffffffffffffffffffff1673ffffffffffffffffffffffffffffffffffffffff160361055a576040517f08c379a000000000000000000000000000000000000000000000000000000000815260040161055190612dfe565b60405180910390fd5b5f831161059c576040517f08c379a000000000000000000000000000000000000000000000000000000000815260040161059390612e66565b60405180910390fd5b600a6001868690506105ae9190612eb1565b11156105ef576040517f08c379a00000000000000000000000000000000000000000000000000000000081526004016105e690612f2e565b60405180910390fd5b61067833308560045f8773ffffffffffffffffffffffffffffffffffffffff1673ffffffffffffffffffffffffffffffffffffffff1681526020019081526020015f205f9054906101000a900473ffffffffffffffffffffffffffffffffffffffff1673ffffffffffffffffffffffffffffffffffffffff166125ee909392919063ffffffff16565b5f60085f81548092919061068b90612f4c565b9190505590505f60065f8381526020019081526020015f209050600782908060018154018082558091505060019003905f5260205f20015f90919091909150558481600301819055508481600201819055505f816004015f6101000a81548160ff0219169083600481111561070357610702612b3c565b5b021790555083816001015f6101000a81548173ffffffffffffffffffffffffffffffffffffffff021916908373ffffffffffffffffffffffffffffffffffffffff16021790555060405180606001604052803373ffffffffffffffffffffffffffffffffffffffff1681526020018681526020015f1515815250816005015f3373ffffffffffffffffffffffffffffffffffffffff1673ffffffffffffffffffffffffffffffffffffffff1681526020019081526020015f205f820151815f015f6101000a81548173ffffffffffffffffffffffffffffffffffffffff021916908373ffffffffffffffffffffffffffffffffffffffff160217905550602082015181600101556040820151816002015f6101000a81548160ff0219169083151502179055509050508060060133908060018154018082558091505060019003905f5260205f20015f9091909190916101000a81548173ffffffffffffffffffffffffffffffffffffffff021916908373ffffffffffffffffffffffffffffffffffffffff1602179055505f5f90505b87879050811015610a645760405180606001604052808989848181106108bc576108bb612f93565b5b90506020020160208101906108d191906129bd565b73ffffffffffffffffffffffffffffffffffffffff1681526020015f81526020015f1515815250826005015f8a8a858181106109105761090f612f93565b5b905060200201602081019061092591906129bd565b73ffffffffffffffffffffffffffffffffffffffff1673ffffffffffffffffffffffffffffffffffffffff1681526020019081526020015f205f820151815f015f6101000a81548173ffffffffffffffffffffffffffffffffffffffff021916908373ffffffffffffffffffffffffffffffffffffffff160217905550602082015181600101556040820151816002015f6101000a81548160ff021916908315150217905550905050816006018888838181106109e5576109e4612f93565b5b90506020020160208101906109fa91906129bd565b908060018154018082558091505060019003905f5260205f20015f9091909190916101000a81548173ffffffffffffffffffffffffffffffffffffffff021916908373ffffffffffffffffffffffffffffffffffffffff1602179055508080600101915050610893565b503373ffffffffffffffffffffffffffffffffffffffff16827fec930341041c5ff4a5017383755eb9783d4ad8bf291b661b7af9595a4e11e4df60405160405180910390a38192505050949350505050565b60025f9054906101000a900473ffffffffffffffffffffffffffffffffffffffff1673ffffffffffffffffffffffffffffffffffffffff163373ffffffffffffffffffffffffffffffffffffffff1614610b45576040517f08c379a0000000000000000000000000000000000000000000000000000000008152600401610b3c9061300a565b60405180910390fd5b5f73ffffffffffffffffffffffffffffffffffffffff168173ffffffffffffffffffffffffffffffffffffffff1603610bb3576040517f08c379a0000000000000000000000000000000000000000000000000000000008152600401610baa90612dfe565b60405180910390fd5b5f60035f8373ffffffffffffffffffffffffffffffffffffffff1673ffffffffffffffffffffffffffffffffffffffff1681526020019081526020015f205490505f8111610c36576040517f08c379a0000000000000000000000000000000000000000000000000000000008152600401610c2d90613072565b60405180910390fd5b5f60035f8473ffffffffffffffffffffffffffffffffffffffff1673ffffffffffffffffffffffffffffffffffffffff1681526020019081526020015f2081905550610cc460025f9054906101000a900473ffffffffffffffffffffffffffffffffffffffff16828473ffffffffffffffffffffffffffffffffffffffff166126709092919063ffffffff16565b5050565b60058181548110610cd7575f80fd5b905f5260205f20015f915054906101000a900473ffffffffffffffffffffffffffffffffffffffff1681565b5f5f5f5f60065f8781526020019081526020015f206005015f8673ffffffffffffffffffffffffffffffffffffffff1673ffffffffffffffffffffffffffffffffffffffff1681526020019081526020015f209050805f015f9054906101000a900473ffffffffffffffffffffffffffffffffffffffff168160010154826002015f9054906101000a900460ff16935093509350509250925092565b60025f9054906101000a900473ffffffffffffffffffffffffffffffffffffffff1673ffffffffffffffffffffffffffffffffffffffff163373ffffffffffffffffffffffffffffffffffffffff1614610e2e576040517f08c379a0000000000000000000000000000000000000000000000000000000008152600401610e259061300a565b60405180910390fd5b5f60078054905067ffffffffffffffff811115610e4e57610e4d613090565b5b604051908082528060200260200182016040528015610e7c5781602001602082028036833780820191505090505b5090505f6007805480602002602001604051908101604052809291908181526020018280548015610eca57602002820191905f5260205f20905b815481526020019060010190808311610eb6575b5050505050905060075f610ede91906127d7565b5f5f90505f5f90505b8251811015611135575f838281518110610f0457610f03612f93565b5b602002602001015190505f60065f8381526020019081526020015f209050600480811115610f3557610f34612b3c565b5b816004015f9054906101000a900460ff166004811115610f5857610f57612b3c565b5b036110ff575f5f90505b816006018054905081101561103c57816005015f836006018381548110610f8c57610f8b612f93565b5b905f5260205f20015f9054906101000a900473ffffffffffffffffffffffffffffffffffffffff1673ffffffffffffffffffffffffffffffffffffffff1673ffffffffffffffffffffffffffffffffffffffff1681526020019081526020015f205f5f82015f6101000a81549073ffffffffffffffffffffffffffffffffffffffff0219169055600182015f9055600282015f6101000a81549060ff021916905550508080600101915050610f62565b5060065f8381526020019081526020015f205f5f82015f6101000a81549073ffffffffffffffffffffffffffffffffffffffff0219169055600182015f6101000a81549073ffffffffffffffffffffffffffffffffffffffff0219169055600282015f9055600382015f9055600482015f6101000a81549060ff0219169055600682015f6110ca91906127f5565b5050818685815181106110e0576110df612f93565b5b60200260200101818152505083806110f790612f4c565b945050611126565b600782908060018154018082558091505060019003905f5260205f20015f90919091909150555b50508080600101915050610ee7565b5081516007805490501015611229575f8167ffffffffffffffff81111561115f5761115e613090565b5b60405190808252806020026020018201604052801561118d5781602001602082028036833780820191505090505b5090505f5f90505b828110156111e4578481815181106111b0576111af612f93565b5b60200260200101518282815181106111cb576111ca612f93565b5b6020026020010181815250508080600101915050611195565b50806040516111f3919061316e565b60405180910390207f23f742627f497d097f0d54e28cb5c46c4e0d78818c0ba173cce3abf9c1119a7460405160405180910390a2505b505050565b6112366126ef565b5f60065f8381526020019081526020015f2090505f816005015f3373ffffffffffffffffffffffffffffffffffffffff1673ffffffffffffffffffffffffffffffffffffffff1681526020019081526020015f209050600260048111156112a05761129f612b3c565b5b826004015f9054906101000a900460ff1660048111156112c3576112c2612b3c565b5b14611303576040517f08c379a00000000000000000000000000000000000000000000000000000000081526004016112fa906131ce565b60405180910390fd5b806002015f9054906101000a900460ff1615611354576040517f08c379a000000000000000000000000000000000000000000000000000000000815260040161134b90613236565b60405180910390fd5b80600101548260020154101561139f576040517f08c379a00000000000000000000000000000000000000000000000000000000081526004016113969061329e565b60405180910390fd5b5f8160010154905080836002015f8282546113ba91906132bc565b925050819055506001826002015f6101000a81548160ff02191690831515021790555061142b3382856001015f9054906101000a900473ffffffffffffffffffffffffffffffffffffffff1673ffffffffffffffffffffffffffffffffffffffff166126709092919063ffffffff16565b3373ffffffffffffffffffffffffffffffffffffffff167f47cee97cb7acd717b3c0aa1435d004cd5b3c8c57d70dbceb4e4458bbd60e39d48260405161147191906129a4565b60405180910390a25f8360020154036114ea576004836004015f6101000a81548160ff021916908360048111156114ab576114aa612b3c565b5b0217905550837f9bd6564623fb7c831af9798510036a9c2d1494d6a70fb5517e31544b00b01eb460046040516114e191906132ef565b60405180910390a25b5050506114f5612733565b50565b6115006126ef565b5f60065f8381526020019081526020015f2090505f816005015f3373ffffffffffffffffffffffffffffffffffffffff1673ffffffffffffffffffffffffffffffffffffffff1681526020019081526020015f2090503373ffffffffffffffffffffffffffffffffffffffff16825f015f9054906101000a900473ffffffffffffffffffffffffffffffffffffffff1673ffffffffffffffffffffffffffffffffffffffff16146115e6576040517f08c379a00000000000000000000000000000000000000000000000000000000081526004016115dd90613352565b60405180910390fd5b600360048111156115fa576115f9612b3c565b5b826004015f9054906101000a900460ff16600481111561161d5761161c612b3c565b5b1461165d576040517f08c379a0000000000000000000000000000000000000000000000000000000008152600401611654906133ba565b60405180910390fd5b806002015f9054906101000a900460ff16156116ae576040517f08c379a00000000000000000000000000000000000000000000000000000000081526004016116a590613236565b60405180910390fd5b5f61271060015484600201546116c491906133d8565b6116ce9190613446565b90505f8184600201546116e191906132bc565b90506001836002015f6101000a81548160ff0219169083151502179055506004846004015f6101000a81548160ff0219169083600481111561172657611725612b3c565b5b02179055506117793382866001015f9054906101000a900473ffffffffffffffffffffffffffffffffffffffff1673ffffffffffffffffffffffffffffffffffffffff166126709092919063ffffffff16565b8160035f866001015f9054906101000a900473ffffffffffffffffffffffffffffffffffffffff1673ffffffffffffffffffffffffffffffffffffffff1673ffffffffffffffffffffffffffffffffffffffff1681526020019081526020015f205f8282546117e89190612eb1565b925050819055503373ffffffffffffffffffffffffffffffffffffffff167f47cee97cb7acd717b3c0aa1435d004cd5b3c8c57d70dbceb4e4458bbd60e39d48260405161183591906129a4565b60405180910390a2847f9bd6564623fb7c831af9798510036a9c2d1494d6a70fb5517e31544b00b01eb4600460405161186e91906132ef565b60405180910390a250505050611882612733565b50565b6004602052805f5260405f205f915054906101000a900473ffffffffffffffffffffffffffffffffffffffff1681565b5f5f5f5f60605f60065f8881526020019081526020015f209050806004015f9054906101000a900460ff16815f015f9054906101000a900473ffffffffffffffffffffffffffffffffffffffff1682600201548360030154846006018080548060200260200160405190810160405280929190818152602001828054801561198f57602002820191905f5260205f20905b815f9054906101000a900473ffffffffffffffffffffffffffffffffffffffff1673ffffffffffffffffffffffffffffffffffffffff1681526020019060010190808311611946575b50505050509050955095509550955095505091939590929450565b60025f9054906101000a900473ffffffffffffffffffffffffffffffffffffffff1681565b60025f9054906101000a900473ffffffffffffffffffffffffffffffffffffffff1673ffffffffffffffffffffffffffffffffffffffff163373ffffffffffffffffffffffffffffffffffffffff1614611a5e576040517f08c379a0000000000000000000000000000000000000000000000000000000008152600401611a559061300a565b60405180910390fd5b5f73ffffffffffffffffffffffffffffffffffffffff1660065f8481526020019081526020015f206005015f8373ffffffffffffffffffffffffffffffffffffffff1673ffffffffffffffffffffffffffffffffffffffff1681526020019081526020015f205f015f9054906101000a900473ffffffffffffffffffffffffffffffffffffffff1673ffffffffffffffffffffffffffffffffffffffff1603611b3c576040517f08c379a0000000000000000000000000000000000000000000000000000000008152600401611b33906134c0565b60405180910390fd5b8060065f8481526020019081526020015f205f015f6101000a81548173ffffffffffffffffffffffffffffffffffffffff021916908373ffffffffffffffffffffffffffffffffffffffff1602179055508073ffffffffffffffffffffffffffffffffffffffff16827f44fd60df9b05a22172cc43446c2ff1abb74d6c6ce938acd70bd3ee1ea2bf595d60405160405180910390a35050565b5f60065f8581526020019081526020015f2090505f816005015f3373ffffffffffffffffffffffffffffffffffffffff1673ffffffffffffffffffffffffffffffffffffffff1681526020019081526020015f2090505f6004811115611c3e57611c3d612b3c565b5b826004015f9054906101000a900460ff166004811115611c6157611c60612b3c565b5b14611ca1576040517f08c379a0000000000000000000000000000000000000000000000000000000008152600401611c9890613528565b60405180910390fd5b8273ffffffffffffffffffffffffffffffffffffffff16826001015f9054906101000a900473ffffffffffffffffffffffffffffffffffffffff1673ffffffffffffffffffffffffffffffffffffffff1614611d32576040517f08c379a0000000000000000000000000000000000000000000000000000000008152600401611d2990613590565b60405180910390fd5b5f73ffffffffffffffffffffffffffffffffffffffff16815f015f9054906101000a900473ffffffffffffffffffffffffffffffffffffffff1673ffffffffffffffffffffffffffffffffffffffff1603611dc2576040517f08c379a0000000000000000000000000000000000000000000000000000000008152600401611db9906135f8565b60405180910390fd5b5f816001015414611e08576040517f08c379a0000000000000000000000000000000000000000000000000000000008152600401611dff90613660565b60405180910390fd5b8160030154841015611e4f576040517f08c379a0000000000000000000000000000000000000000000000000000000008152600401611e46906136c8565b60405180910390fd5b611ed833308660045f8873ffffffffffffffffffffffffffffffffffffffff1673ffffffffffffffffffffffffffffffffffffffff1681526020019081526020015f205f9054906101000a900473ffffffffffffffffffffffffffffffffffffffff1673ffffffffffffffffffffffffffffffffffffffff166125ee909392919063ffffffff16565b83816001018190555083826002015f828254611ef49190612eb1565b925050819055505f600190505f5f90505b8360060180549050811015611fb4578360030154846005015f866006018481548110611f3457611f33612f93565b5b905f5260205f20015f9054906101000a900473ffffffffffffffffffffffffffffffffffffffff1673ffffffffffffffffffffffffffffffffffffffff1673ffffffffffffffffffffffffffffffffffffffff1681526020019081526020015f20600101541015611fa7575f9150611fb4565b8080600101915050611f05565b508015612021576001836004015f6101000a81548160ff02191690836004811115611fe257611fe1612b3c565b5b0217905550857f9bd6564623fb7c831af9798510036a9c2d1494d6a70fb5517e31544b00b01eb4600160405161201891906132ef565b60405180910390a25b3373ffffffffffffffffffffffffffffffffffffffff16867fb588749a0bc7dad21f5e6d249c0754fdb7b258080ebfeecb29265842c86495558760405161206891906129a4565b60405180910390a3505050505050565b6003602052805f5260405f205f915090505481565b6060805f60058054905090508067ffffffffffffffff8111156120b3576120b2613090565b5b6040519080825280602002602001820160405280156120e15781602001602082028036833780820191505090505b5092508067ffffffffffffffff8111156120fe576120fd613090565b5b60405190808252806020026020018201604052801561212c5781602001602082028036833780820191505090505b5091505f5f90505b81811015612281575f6005828154811061215157612150612f93565b5b905f5260205f20015f9054906101000a900473ffffffffffffffffffffffffffffffffffffffff1690508085838151811061218f5761218e612f93565b5b602002602001019073ffffffffffffffffffffffffffffffffffffffff16908173ffffffffffffffffffffffffffffffffffffffff168152505060045f8273ffffffffffffffffffffffffffffffffffffffff1673ffffffffffffffffffffffffffffffffffffffff1681526020019081526020015f205f9054906101000a900473ffffffffffffffffffffffffffffffffffffffff1684838151811061223957612238612f93565b5b602002602001019073ffffffffffffffffffffffffffffffffffffffff16908173ffffffffffffffffffffffffffffffffffffffff1681525050508080600101915050612134565b50509091565b60025f9054906101000a900473ffffffffffffffffffffffffffffffffffffffff1673ffffffffffffffffffffffffffffffffffffffff163373ffffffffffffffffffffffffffffffffffffffff1614612316576040517f08c379a000000000000000000000000000000000000000000000000000000000815260040161230d9061300a565b60405180910390fd5b8060045f8373ffffffffffffffffffffffffffffffffffffffff1673ffffffffffffffffffffffffffffffffffffffff1681526020019081526020015f205f6101000a81548173ffffffffffffffffffffffffffffffffffffffff021916908373ffffffffffffffffffffffffffffffffffffffff160217905550600581908060018154018082558091505060019003905f5260205f20015f9091909190916101000a81548173ffffffffffffffffffffffffffffffffffffffff021916908373ffffffffffffffffffffffffffffffffffffffff16021790555050565b60015481565b60025f9054906101000a900473ffffffffffffffffffffffffffffffffffffffff1673ffffffffffffffffffffffffffffffffffffffff163373ffffffffffffffffffffffffffffffffffffffff1614612489576040517f08c379a00000000000000000000000000000000000000000000000000000000081526004016124809061300a565b60405180910390fd5b5f8111801561249a57506127108111155b6124d9576040517f08c379a00000000000000000000000000000000000000000000000000000000081526004016124d090613756565b60405180910390fd5b8060018190555050565b600a81565b60025f9054906101000a900473ffffffffffffffffffffffffffffffffffffffff1673ffffffffffffffffffffffffffffffffffffffff163373ffffffffffffffffffffffffffffffffffffffff1614612577576040517f08c379a000000000000000000000000000000000000000000000000000000000815260040161256e9061300a565b60405180910390fd5b8060065f8481526020019081526020015f206004015f6101000a81548160ff021916908360048111156125ad576125ac612b3c565b5b0217905550817f9bd6564623fb7c831af9798510036a9c2d1494d6a70fb5517e31544b00b01eb4826040516125e291906132ef565b60405180910390a25050565b61266a848573ffffffffffffffffffffffffffffffffffffffff166323b872dd86868660405160240161262393929190613774565b604051602081830303815290604052915060e01b6020820180517bffffffffffffffffffffffffffffffffffffffffffffffffffffffff838183161783525050505061273c565b50505050565b6126ea838473ffffffffffffffffffffffffffffffffffffffff1663a9059cbb85856040516024016126a39291906137a9565b604051602081830303815290604052915060e01b6020820180517bffffffffffffffffffffffffffffffffffffffffffffffffffffffff838183161783525050505061273c565b505050565b60025f540361272a576040517f3ee5aeb500000000000000000000000000000000000000000000000000000000815260040160405180910390fd5b60025f81905550565b60015f81905550565b5f5f60205f8451602086015f885af18061275b576040513d5f823e3d81fd5b3d92505f519150505f821461277457600181141561278f565b5f8473ffffffffffffffffffffffffffffffffffffffff163b145b156127d157836040517f5274afe70000000000000000000000000000000000000000000000000000000081526004016127c89190612a22565b60405180910390fd5b50505050565b5080545f8255905f5260205f20908101906127f29190612813565b50565b5080545f8255905f5260205f20908101906128109190612813565b50565b5b8082111561282a575f815f905550600101612814565b5090565b5f5ffd5b5f5ffd5b5f5ffd5b5f5ffd5b5f5ffd5b5f5f83601f84011261285757612856612836565b5b8235905067ffffffffffffffff8111156128745761287361283a565b5b6020830191508360208202830111156128905761288f61283e565b5b9250929050565b5f819050919050565b6128a981612897565b81146128b3575f5ffd5b50565b5f813590506128c4816128a0565b92915050565b5f73ffffffffffffffffffffffffffffffffffffffff82169050919050565b5f6128f3826128ca565b9050919050565b612903816128e9565b811461290d575f5ffd5b50565b5f8135905061291e816128fa565b92915050565b5f5f5f5f6060858703121561293c5761293b61282e565b5b5f85013567ffffffffffffffff81111561295957612958612832565b5b61296587828801612842565b94509450506020612978878288016128b6565b925050604061298987828801612910565b91505092959194509250565b61299e81612897565b82525050565b5f6020820190506129b75f830184612995565b92915050565b5f602082840312156129d2576129d161282e565b5b5f6129df84828501612910565b91505092915050565b5f602082840312156129fd576129fc61282e565b5b5f612a0a848285016128b6565b91505092915050565b612a1c816128e9565b82525050565b5f602082019050612a355f830184612a13565b92915050565b5f5f60408385031215612a5157612a5061282e565b5b5f612a5e858286016128b6565b9250506020612a6f85828601612910565b9150509250929050565b5f8115159050919050565b612a8d81612a79565b82525050565b5f606082019050612aa65f830186612a13565b612ab36020830185612995565b612ac06040830184612a84565b949350505050565b5f819050919050565b5f612aeb612ae6612ae1846128ca565b612ac8565b6128ca565b9050919050565b5f612afc82612ad1565b9050919050565b5f612b0d82612af2565b9050919050565b612b1d81612b03565b82525050565b5f602082019050612b365f830184612b14565b92915050565b7f4e487b71000000000000000000000000000000000000000000000000000000005f52602160045260245ffd5b60058110612b7a57612b79612b3c565b5b50565b5f819050612b8a82612b69565b919050565b5f612b9982612b7d565b9050919050565b612ba981612b8f565b82525050565b5f81519050919050565b5f82825260208201905092915050565b5f819050602082019050919050565b612be1816128e9565b82525050565b5f612bf28383612bd8565b60208301905092915050565b5f602082019050919050565b5f612c1482612baf565b612c1e8185612bb9565b9350612c2983612bc9565b805f5b83811015612c59578151612c408882612be7565b9750612c4b83612bfe565b925050600181019050612c2c565b5085935050505092915050565b5f60a082019050612c795f830188612ba0565b612c866020830187612a13565b612c936040830186612995565b612ca06060830185612995565b8181036080830152612cb28184612c0a565b90509695505050505050565b5f5f5f60608486031215612cd557612cd461282e565b5b5f612ce2868287016128b6565b9350506020612cf3868287016128b6565b9250506040612d0486828701612910565b9150509250925092565b5f6040820190508181035f830152612d268185612c0a565b90508181036020830152612d3a8184612c0a565b90509392505050565b60058110612d4f575f5ffd5b50565b5f81359050612d6081612d43565b92915050565b5f5f60408385031215612d7c57612d7b61282e565b5b5f612d89858286016128b6565b9250506020612d9a85828601612d52565b9150509250929050565b5f82825260208201905092915050565b7f496e76616c696420746f6b656e000000000000000000000000000000000000005f82015250565b5f612de8600d83612da4565b9150612df382612db4565b602082019050919050565b5f6020820190508181035f830152612e1581612ddc565b9050919050565b7f5374616b65206d7573742062652067726561746572207468616e2030000000005f82015250565b5f612e50601c83612da4565b9150612e5b82612e1c565b602082019050919050565b5f6020820190508181035f830152612e7d81612e44565b9050919050565b7f4e487b71000000000000000000000000000000000000000000000000000000005f52601160045260245ffd5b5f612ebb82612897565b9150612ec683612897565b9250828201905080821115612ede57612edd612e84565b5b92915050565b7f546f6f206d616e79207061727469636970616e747300000000000000000000005f82015250565b5f612f18601583612da4565b9150612f2382612ee4565b602082019050919050565b5f6020820190508181035f830152612f4581612f0c565b9050919050565b5f612f5682612897565b91507fffffffffffffffffffffffffffffffffffffffffffffffffffffffffffffffff8203612f8857612f87612e84565b5b600182019050919050565b7f4e487b71000000000000000000000000000000000000000000000000000000005f52603260045260245ffd5b7f4f6e6c79206f776e65722063616e2063616c6c207468697300000000000000005f82015250565b5f612ff4601883612da4565b9150612fff82612fc0565b602082019050919050565b5f6020820190508181035f83015261302181612fe8565b9050919050565b7f4e6f7468696e6720746f207769746864726177000000000000000000000000005f82015250565b5f61305c601383612da4565b915061306782613028565b602082019050919050565b5f6020820190508181035f83015261308981613050565b9050919050565b7f4e487b71000000000000000000000000000000000000000000000000000000005f52604160045260245ffd5b5f81519050919050565b5f81905092915050565b5f819050602082019050919050565b6130e981612897565b82525050565b5f6130fa83836130e0565b60208301905092915050565b5f602082019050919050565b5f61311c826130bd565b61312681856130c7565b9350613131836130d1565b805f5b8381101561316157815161314888826130ef565b975061315383613106565b925050600181019050613134565b5085935050505092915050565b5f6131798284613112565b915081905092915050565b7f5761676572206e6f742063616e63656c6c6564000000000000000000000000005f82015250565b5f6131b8601383612da4565b91506131c382613184565b602082019050919050565b5f6020820190508181035f8301526131e5816131ac565b9050919050565b7f416c726561647920636c61696d656400000000000000000000000000000000005f82015250565b5f613220600f83612da4565b915061322b826131ec565b602082019050919050565b5f6020820190508181035f83015261324d81613214565b9050919050565b7f436c61696d73206e6f7420616c6c6f77656400000000000000000000000000005f82015250565b5f613288601283612da4565b915061329382613254565b602082019050919050565b5f6020820190508181035f8301526132b58161327c565b9050919050565b5f6132c682612897565b91506132d183612897565b92508282039050818111156132e9576132e8612e84565b5b92915050565b5f6020820190506133025f830184612ba0565b92915050565b7f4e6f742077696e6e6572000000000000000000000000000000000000000000005f82015250565b5f61333c600a83612da4565b915061334782613308565b602082019050919050565b5f6020820190508181035f83015261336981613330565b9050919050565b7f5761676572206e6f7420636f6d706c65746564000000000000000000000000005f82015250565b5f6133a4601383612da4565b91506133af82613370565b602082019050919050565b5f6020820190508181035f8301526133d181613398565b9050919050565b5f6133e282612897565b91506133ed83612897565b92508282026133fb81612897565b9150828204841483151761341257613411612e84565b5b5092915050565b7f4e487b71000000000000000000000000000000000000000000000000000000005f52601260045260245ffd5b5f61345082612897565b915061345b83612897565b92508261346b5761346a613419565b5b828204905092915050565b7f57696e6e6572206e6f742061207061727469636970616e7400000000000000005f82015250565b5f6134aa601883612da4565b91506134b582613476565b602082019050919050565b5f6020820190508181035f8301526134d78161349e565b9050919050565b7f5761676572206e6f7420616374697665000000000000000000000000000000005f82015250565b5f613512601083612da4565b915061351d826134de565b602082019050919050565b5f6020820190508181035f83015261353f81613506565b9050919050565b7f546f6b656e206d69736d617463680000000000000000000000000000000000005f82015250565b5f61357a600e83612da4565b915061358582613546565b602082019050919050565b5f6020820190508181035f8301526135a78161356e565b9050919050565b7f4e6f742061207061727469636970616e740000000000000000000000000000005f82015250565b5f6135e2601183612da4565b91506135ed826135ae565b602082019050919050565b5f6020820190508181035f83015261360f816135d6565b9050919050565b7f416c7265616479206163636570746564000000000000000000000000000000005f82015250565b5f61364a601083612da4565b915061365582613616565b602082019050919050565b5f6020820190508181035f8301526136778161363e565b9050919050565b7f496e73756666696369656e74207374616b6500000000000000000000000000005f82015250565b5f6136b2601283612da4565b91506136bd8261367e565b602082019050919050565b5f6020820190508181035f8301526136df816136a6565b9050919050565b7f426173697320706f696e7473206d757374206265206265747765656e203120615f8201527f6e642031302c3030300000000000000000000000000000000000000000000000602082015250565b5f613740602983612da4565b915061374b826136e6565b604082019050919050565b5f6020820190508181035f83015261376d81613734565b9050919050565b5f6060820190506137875f830186612a13565b6137946020830185612a13565b6137a16040830184612995565b949350505050565b5f6040820190506137bc5f830185612a13565b6137c96020830184612995565b939250505056fea2646970667358221220aed56cbc974d4c89bba169249d9928fc8504e33779aa6ccde2c8e697e49b349664736f6c634300081d0033","linkReferences":{}},"methodIdentifiers":{"COMMISSION_BASIS_POINTS()":"de1f6ea8","MAX_PARTICIPANTS()":"f3baf070","acceptWager(uint256,uint256,address)":"b12b3f91","addToken(address)":"d48bfca7","claimRefund(uint256)":"5b7baf64","claimWinnings(uint256)":"677bd9ff","commissionBalances(address)":"b2642987","createWager(address[],uint256,address)":"05385fe9","deleteCompletedWagers()":"3dc44c0b","getParticipant(uint256,address)":"35f3ad7a","getSupportedTokens()":"d3c7c2c7","getWager(uint256)":"7a2756f2","owner()":"8da5cb5b","setCommissionBasisPoints(uint256)":"f00f6921","setWagerStatus(uint256,uint8)":"f84cc579","setWinner(uint256,address)":"9c623683","supportedTokens(address)":"68c4ac26","supportedTokensArray(uint256)":"2e9b3201","withdrawCommission(address)":"16c58d04"},"id":23}