{"abi":[{"type":"constructor","inputs":[{"name":"_basisPoints","type":"uint256","internalType":"uint256"}],"stateMutability":"nonpayable"},{"type":"receive","stateMutability":"payable"},{"type":"function","name":"COMMISSION_BASIS_POINTS","inputs":[],"outputs":[{"name":"","type":"uint256","internalType":"uint256"}],"stateMutability":"view"},{"type":"function","name":"MAX_PARTICIPANTS","inputs":[],"outputs":[{"name":"","type":"uint256","internalType":"uint256"}],"stateMutability":"view"},{"type":"function","name":"acceptWager","inputs":[{"name":"id","type":"uint256","internalType":"uint256"},{"name":"_stake","type":"uint256","internalType":"uint256"},{"name":"_token","type":"address","internalType":"address"}],"outputs":[],"stateMutability":"nonpayable"},{"type":"function","name":"addToken","inputs":[{"name":"_token","type":"address","internalType":"address"}],"outputs":[],"stateMutability":"nonpayable"},{"type":"function","name":"claimRefund","inputs":[{"name":"id","type":"uint256","internalType":"uint256"}],"outputs":[],"stateMutability":"nonpayable"},{"type":"function","name":"claimWinnings","inputs":[{"name":"id","type":"uint256","internalType":"uint256"}],"outputs":[],"stateMutability":"nonpayable"},{"type":"function","name":"commissionBalances","inputs":[{"name":"","type":"address","internalType":"address"}],"outputs":[{"name":"","type":"uint256","internalType":"uint256"}],"stateMutability":"view"},{"type":"function","name":"createWager","inputs":[{"name":"_participants","type":"address[]","internalType":"address[]"},{"name":"_stake","type":"uint256","internalType":"uint256"},{"name":"_token","type":"address","internalType":"address"}],"outputs":[{"name":"","type":"uint256","internalType":"uint256"}],"stateMutability":"nonpayable"},{"type":"function","name":"deleteCompletedWagers","inputs":[],"outputs":[],"stateMutability":"nonpayable"},{"type":"function","name":"getAllWagers","inputs":[],"outputs":[{"name":"ids","type":"uint256[]","internalType":"uint256[]"}],"stateMutability":"view"},{"type":"function","name":"getParticipant","inputs":[{"name":"id","type":"uint256","internalType":"uint256"},{"name":"user","type":"address","internalType":"address"}],"outputs":[{"name":"walletAddress","type":"address","internalType":"address"},{"name":"stake","type":"uint256","internalType":"uint256"},{"name":"hasClaimed","type":"bool","internalType":"bool"}],"stateMutability":"view"},{"type":"function","name":"getSupportedTokens","inputs":[],"outputs":[{"name":"tokens","type":"address[]","internalType":"address[]"},{"name":"erc20Contracts","type":"address[]","internalType":"address[]"}],"stateMutability":"view"},{"type":"function","name":"getWager","inputs":[{"name":"id","type":"uint256","internalType":"uint256"}],"outputs":[{"name":"status","type":"uint8","internalType":"enum WagerEscrow.WagerStatus"},{"name":"winner","type":"address","internalType":"address"},{"name":"totalStake","type":"uint256","internalType":"uint256"},{"name":"requiredStake","type":"uint256","internalType":"uint256"},{"name":"participantAddresses","type":"address[]","internalType":"address[]"}],"stateMutability":"view"},{"type":"function","name":"owner","inputs":[],"outputs":[{"name":"","type":"address","internalType":"address"}],"stateMutability":"view"},{"type":"function","name":"setCommissionBasisPoints","inputs":[{"name":"_basisPoints","type":"uint256","internalType":"uint256"}],"outputs":[],"stateMutability":"nonpayable"},{"type":"function","name":"setWagerStatus","inputs":[{"name":"id","type":"uint256","internalType":"uint256"},{"name":"status","type":"uint8","internalType":"enum WagerEscrow.WagerStatus"}],"outputs":[],"stateMutability":"nonpayable"},{"type":"function","name":"setWinner","inputs":[{"name":"id","type":"uint256","internalType":"uint256"},{"name":"winner","type":"address","internalType":"address"}],"outputs":[],"stateMutability":"nonpayable"},{"type":"function","name":"supportedTokens","inputs":[{"name":"","type":"address","internalType":"address"}],"outputs":[{"name":"","type":"address","internalType":"contract IERC20"}],"stateMutability":"view"},{"type":"function","name":"supportedTokensArray","inputs":[{"name":"","type":"uint256","internalType":"uint256"}],"outputs":[{"name":"","type":"address","internalType":"address"}],"stateMutability":"view"},{"type":"function","name":"withdrawCommission","inputs":[{"name":"_token","type":"address","internalType":"address"}],"outputs":[],"stateMutability":"nonpayable"},{"type":"event","name":"Claim","inputs":[{"name":"participant","type":"address","indexed":true,"internalType":"address"},{"name":"amount","type":"uint256","indexed":false,"internalType":"uint256"}],"anonymous":false},{"type":"event","name":"CompletedWagersDeleted","inputs":[{"name":"ids","type":"uint256[]","indexed":true,"internalType":"uint256[]"}],"anonymous":false},{"type":"event","name":"WagerAccepted","inputs":[{"name":"id","type":"uint256","indexed":true,"internalType":"uint256"},{"name":"participant","type":"address","indexed":true,"internalType":"address"},{"name":"amount","type":"uint256","indexed":false,"internalType":"uint256"}],"anonymous":false},{"type":"event","name":"WagerCreated","inputs":[{"name":"id","type":"uint256","indexed":true,"internalType":"uint256"},{"name":"creator","type":"address","indexed":true,"internalType":"address"}],"anonymous":false},{"type":"event","name":"WagerDeleted","inputs":[{"name":"id","type":"uint256","indexed":true,"internalType":"uint256"}],"anonymous":false},{"type":"event","name":"WagerStatusUpdated","inputs":[{"name":"id","type":"uint256","indexed":true,"internalType":"uint256"},{"name":"status","type":"uint8","indexed":false,"internalType":"enum WagerEscrow.WagerStatus"}],"anonymous":false},{"type":"event","name":"WinnerSet","inputs":[{"name":"id","type":"uint256","indexed":true,"internalType":"uint256"},{"name":"winner","type":"address","indexed":true,"internalType":"address"}],"anonymous":false},{"type":"error","name":"ReentrancyGuardReentrantCall","inputs":[]},{"type":"error","name":"SafeERC20FailedOperation","inputs":[{"name":"token","type":"address","internalType":"address"}]}],"bytecode":{"object":"0x6080604052348015600e575f5ffd5b506040516139213803806139218339818101604052810190602e919060b3565b60015f819055503360025f6101000a81548173ffffffffffffffffffffffffffffffffffffffff021916908373ffffffffffffffffffffffffffffffffffffffff160217905550806001819055505060d9565b5f5ffd5b5f819050919050565b6095816085565b8114609e575f5ffd5b50565b5f8151905060ad81608e565b92915050565b5f6020828403121560c55760c46081565b5b5f60d08482850160a1565b91505092915050565b61383b806100e65f395ff3fe608060405260043610610122575f3560e01c80638da5cb5b1161009f578063d48bfca711610063578063d48bfca7146103f8578063de1f6ea814610420578063f00f69211461044a578063f3baf07014610472578063f84cc5791461049c57610129565b80638da5cb5b146103175780639c62368314610341578063b12b3f9114610369578063b264298714610391578063d3c7c2c7146103cd57610129565b80635b7baf64116100e65780635b7baf6414610221578063677bd9ff1461024957806368c4ac26146102715780637a2756f2146102ad5780637fed58c7146102ed57610129565b806305385fe91461012d57806316c58d04146101695780632e9b32011461019157806335f3ad7a146101cd5780633dc44c0b1461020b57610129565b3661012957005b5f5ffd5b348015610138575f5ffd5b50610153600480360381019061014e919061290f565b6104c4565b604051610160919061298f565b60405180910390f35b348015610174575f5ffd5b5061018f600480360381019061018a91906129a8565b6109ad565b005b34801561019c575f5ffd5b506101b760048036038101906101b291906129d3565b610bbf565b6040516101c49190612a0d565b60405180910390f35b3480156101d8575f5ffd5b506101f360048036038101906101ee9190612a26565b610bfa565b60405161020293929190612a7e565b60405180910390f35b348015610216575f5ffd5b5061021f610cd0565b005b34801561022c575f5ffd5b50610247600480360381019061024291906129d3565b61107f565b005b348015610254575f5ffd5b5061026f600480360381019061026a91906129d3565b61137e565b005b34801561027c575f5ffd5b50610297600480360381019061029291906129a8565b611740565b6040516102a49190612b0e565b60405180910390f35b3480156102b8575f5ffd5b506102d360048036038101906102ce91906129d3565b611770565b6040516102e4959493929190612c51565b60405180910390f35b3480156102f8575f5ffd5b506103016118dd565b60405161030e9190612d60565b60405180910390f35b348015610322575f5ffd5b5061032b611933565b6040516103389190612a0d565b60405180910390f35b34801561034c575f5ffd5b5061036760048036038101906103629190612a26565b611958565b005b348015610374575f5ffd5b5061038f600480360381019061038a9190612d80565b611ad7565b005b34801561039c575f5ffd5b506103b760048036038101906103b291906129a8565b611f55565b6040516103c4919061298f565b60405180910390f35b3480156103d8575f5ffd5b506103e1611f6a565b6040516103ef929190612dd0565b60405180910390f35b348015610403575f5ffd5b5061041e600480360381019061041991906129a8565b612164565b005b34801561042b575f5ffd5b506104346122d1565b604051610441919061298f565b60405180910390f35b348015610455575f5ffd5b50610470600480360381019061046b91906129d3565b6122d7565b005b34801561047d575f5ffd5b506104866123c0565b604051610493919061298f565b60405180910390f35b3480156104a7575f5ffd5b506104c260048036038101906104bd9190612e28565b6123c5565b005b5f5f73ffffffffffffffffffffffffffffffffffffffff1660045f8473ffffffffffffffffffffffffffffffffffffffff1673ffffffffffffffffffffffffffffffffffffffff1681526020019081526020015f205f9054906101000a900473ffffffffffffffffffffffffffffffffffffffff1673ffffffffffffffffffffffffffffffffffffffff160361058f576040517f08c379a000000000000000000000000000000000000000000000000000000000815260040161058690612ec0565b60405180910390fd5b5f83116105d1576040517f08c379a00000000000000000000000000000000000000000000000000000000081526004016105c890612f28565b60405180910390fd5b600a6001868690506105e39190612f73565b1115610624576040517f08c379a000000000000000000000000000000000000000000000000000000000815260040161061b90612ff0565b60405180910390fd5b6106ad33308560045f8773ffffffffffffffffffffffffffffffffffffffff1673ffffffffffffffffffffffffffffffffffffffff1681526020019081526020015f205f9054906101000a900473ffffffffffffffffffffffffffffffffffffffff1673ffffffffffffffffffffffffffffffffffffffff166124cb909392919063ffffffff16565b5f60085f8154809291906106c09061300e565b9190505590505f60065f8381526020019081526020015f209050600782908060018154018082558091505060019003905f5260205f20015f90919091909150558481600301819055508481600201819055505f816004015f6101000a81548160ff0219169083600481111561073857610737612b27565b5b021790555083816001015f6101000a81548173ffffffffffffffffffffffffffffffffffffffff021916908373ffffffffffffffffffffffffffffffffffffffff1602179055508060050160405180606001604052803373ffffffffffffffffffffffffffffffffffffffff1681526020018781526020015f1515815250908060018154018082558091505060019003905f5260205f2090600302015f909190919091505f820151815f015f6101000a81548173ffffffffffffffffffffffffffffffffffffffff021916908373ffffffffffffffffffffffffffffffffffffffff160217905550602082015181600101556040820151816002015f6101000a81548160ff02191690831515021790555050505f5f90505b8787905081101561095b578160050160405180606001604052808a8a8581811061087d5761087c613055565b5b905060200201602081019061089291906129a8565b73ffffffffffffffffffffffffffffffffffffffff1681526020015f81526020015f1515815250908060018154018082558091505060019003905f5260205f2090600302015f909190919091505f820151815f015f6101000a81548173ffffffffffffffffffffffffffffffffffffffff021916908373ffffffffffffffffffffffffffffffffffffffff160217905550602082015181600101556040820151816002015f6101000a81548160ff02191690831515021790555050508080600101915050610850565b503373ffffffffffffffffffffffffffffffffffffffff16827fec930341041c5ff4a5017383755eb9783d4ad8bf291b661b7af9595a4e11e4df60405160405180910390a38192505050949350505050565b60025f9054906101000a900473ffffffffffffffffffffffffffffffffffffffff1673ffffffffffffffffffffffffffffffffffffffff163373ffffffffffffffffffffffffffffffffffffffff1614610a3c576040517f08c379a0000000000000000000000000000000000000000000000000000000008152600401610a33906130cc565b60405180910390fd5b5f73ffffffffffffffffffffffffffffffffffffffff168173ffffffffffffffffffffffffffffffffffffffff1603610aaa576040517f08c379a0000000000000000000000000000000000000000000000000000000008152600401610aa190612ec0565b60405180910390fd5b5f60035f8373ffffffffffffffffffffffffffffffffffffffff1673ffffffffffffffffffffffffffffffffffffffff1681526020019081526020015f205490505f8111610b2d576040517f08c379a0000000000000000000000000000000000000000000000000000000008152600401610b2490613134565b60405180910390fd5b5f60035f8473ffffffffffffffffffffffffffffffffffffffff1673ffffffffffffffffffffffffffffffffffffffff1681526020019081526020015f2081905550610bbb60025f9054906101000a900473ffffffffffffffffffffffffffffffffffffffff16828473ffffffffffffffffffffffffffffffffffffffff1661254d9092919063ffffffff16565b5050565b60058181548110610bce575f80fd5b905f5260205f20015f915054906101000a900473ffffffffffffffffffffffffffffffffffffffff1681565b5f5f5f5f60065f8781526020019081526020015f2090505f5f610c1d83886125cc565b9150915080610c61576040517f08c379a0000000000000000000000000000000000000000000000000000000008152600401610c589061319c565b60405180910390fd5b5f836005018381548110610c7857610c77613055565b5b905f5260205f2090600302019050805f015f9054906101000a900473ffffffffffffffffffffffffffffffffffffffff168160010154826002015f9054906101000a900460ff16965096509650505050509250925092565b60025f9054906101000a900473ffffffffffffffffffffffffffffffffffffffff1673ffffffffffffffffffffffffffffffffffffffff163373ffffffffffffffffffffffffffffffffffffffff1614610d5f576040517f08c379a0000000000000000000000000000000000000000000000000000000008152600401610d56906130cc565b60405180910390fd5b5f60078054905067ffffffffffffffff811115610d7f57610d7e6131ba565b5b604051908082528060200260200182016040528015610dad5781602001602082028036833780820191505090505b5090505f6007805480602002602001604051908101604052809291908181526020018280548015610dfb57602002820191905f5260205f20905b815481526020019060010190808311610de7575b5050505050905060075f610e0f9190612769565b5f5f90505f5f90505b8251811015610f86575f838281518110610e3557610e34613055565b5b602002602001015190505f60065f8381526020019081526020015f209050600480811115610e6657610e65612b27565b5b816004015f9054906101000a900460ff166004811115610e8957610e88612b27565b5b03610f505760065f8381526020019081526020015f205f5f82015f6101000a81549073ffffffffffffffffffffffffffffffffffffffff0219169055600182015f6101000a81549073ffffffffffffffffffffffffffffffffffffffff0219169055600282015f9055600382015f9055600482015f6101000a81549060ff0219169055600582015f610f1b9190612787565b505081868581518110610f3157610f30613055565b5b6020026020010181815250508380610f489061300e565b945050610f77565b600782908060018154018082558091505060019003905f5260205f20015f90919091909150555b50508080600101915050610e18565b508151600780549050101561107a575f8167ffffffffffffffff811115610fb057610faf6131ba565b5b604051908082528060200260200182016040528015610fde5781602001602082028036833780820191505090505b5090505f5f90505b828110156110355784818151811061100157611000613055565b5b602002602001015182828151811061101c5761101b613055565b5b6020026020010181815250508080600101915050610fe6565b50806040516110449190613273565b60405180910390207f23f742627f497d097f0d54e28cb5c46c4e0d78818c0ba173cce3abf9c1119a7460405160405180910390a2505b505050565b611087612681565b5f60065f8381526020019081526020015f2090505f5f6110a783336125cc565b91509150806110eb576040517f08c379a00000000000000000000000000000000000000000000000000000000081526004016110e29061319c565b60405180910390fd5b5f83600501838154811061110257611101613055565b5b905f5260205f20906003020190506002600481111561112457611123612b27565b5b846004015f9054906101000a900460ff16600481111561114757611146612b27565b5b14611187576040517f08c379a000000000000000000000000000000000000000000000000000000000815260040161117e906132d3565b60405180910390fd5b806002015f9054906101000a900460ff16156111d8576040517f08c379a00000000000000000000000000000000000000000000000000000000081526004016111cf9061333b565b60405180910390fd5b806001015484600201541015611223576040517f08c379a000000000000000000000000000000000000000000000000000000000815260040161121a906133a3565b60405180910390fd5b5f8160010154905080856002015f82825461123e91906133c1565b925050819055506001826002015f6101000a81548160ff0219169083151502179055506112af3382876001015f9054906101000a900473ffffffffffffffffffffffffffffffffffffffff1673ffffffffffffffffffffffffffffffffffffffff1661254d9092919063ffffffff16565b3373ffffffffffffffffffffffffffffffffffffffff167f47cee97cb7acd717b3c0aa1435d004cd5b3c8c57d70dbceb4e4458bbd60e39d4826040516112f5919061298f565b60405180910390a25f85600201540361136e576004856004015f6101000a81548160ff0219169083600481111561132f5761132e612b27565b5b0217905550857f9bd6564623fb7c831af9798510036a9c2d1494d6a70fb5517e31544b00b01eb4600460405161136591906133f4565b60405180910390a25b505050505061137b6126c5565b50565b611386612681565b5f60065f8381526020019081526020015f2090505f5f6113a683336125cc565b91509150806113ea576040517f08c379a00000000000000000000000000000000000000000000000000000000081526004016113e19061319c565b60405180910390fd5b5f83600501838154811061140157611400613055565b5b905f5260205f20906003020190503373ffffffffffffffffffffffffffffffffffffffff16845f015f9054906101000a900473ffffffffffffffffffffffffffffffffffffffff1673ffffffffffffffffffffffffffffffffffffffff161461149f576040517f08c379a000000000000000000000000000000000000000000000000000000000815260040161149690613457565b60405180910390fd5b600360048111156114b3576114b2612b27565b5b846004015f9054906101000a900460ff1660048111156114d6576114d5612b27565b5b14611516576040517f08c379a000000000000000000000000000000000000000000000000000000000815260040161150d906134bf565b60405180910390fd5b806002015f9054906101000a900460ff1615611567576040517f08c379a000000000000000000000000000000000000000000000000000000000815260040161155e9061333b565b60405180910390fd5b5f612710600154866002015461157d91906134dd565b611587919061354b565b90505f81866002015461159a91906133c1565b90506001836002015f6101000a81548160ff0219169083151502179055506004866004015f6101000a81548160ff021916908360048111156115df576115de612b27565b5b02179055506116323382886001015f9054906101000a900473ffffffffffffffffffffffffffffffffffffffff1673ffffffffffffffffffffffffffffffffffffffff1661254d9092919063ffffffff16565b8160035f886001015f9054906101000a900473ffffffffffffffffffffffffffffffffffffffff1673ffffffffffffffffffffffffffffffffffffffff1673ffffffffffffffffffffffffffffffffffffffff1681526020019081526020015f205f8282546116a19190612f73565b925050819055503373ffffffffffffffffffffffffffffffffffffffff167f47cee97cb7acd717b3c0aa1435d004cd5b3c8c57d70dbceb4e4458bbd60e39d4826040516116ee919061298f565b60405180910390a2867f9bd6564623fb7c831af9798510036a9c2d1494d6a70fb5517e31544b00b01eb4600460405161172791906133f4565b60405180910390a250505050505061173d6126c5565b50565b6004602052805f5260405f205f915054906101000a900473ffffffffffffffffffffffffffffffffffffffff1681565b5f5f5f5f60605f60065f8881526020019081526020015f2090505f816005018054905090508067ffffffffffffffff8111156117af576117ae6131ba565b5b6040519080825280602002602001820160405280156117dd5781602001602082028036833780820191505090505b5092505f5f90505b8181101561188b5782600501818154811061180357611802613055565b5b905f5260205f2090600302015f015f9054906101000a900473ffffffffffffffffffffffffffffffffffffffff1684828151811061184457611843613055565b5b602002602001019073ffffffffffffffffffffffffffffffffffffffff16908173ffffffffffffffffffffffffffffffffffffffff168152505080806001019150506117e5565b50816004015f9054906101000a900460ff16825f015f9054906101000a900473ffffffffffffffffffffffffffffffffffffffff16836002015484600301549650965096509650505091939590929450565b6060600780548060200260200160405190810160405280929190818152602001828054801561192957602002820191905f5260205f20905b815481526020019060010190808311611915575b5050505050905090565b60025f9054906101000a900473ffffffffffffffffffffffffffffffffffffffff1681565b60025f9054906101000a900473ffffffffffffffffffffffffffffffffffffffff1673ffffffffffffffffffffffffffffffffffffffff163373ffffffffffffffffffffffffffffffffffffffff16146119e7576040517f08c379a00000000000000000000000000000000000000000000000000000000081526004016119de906130cc565b60405180910390fd5b5f60065f8481526020019081526020015f2090505f5f611a0783336125cc565b9150915080611a4b576040517f08c379a0000000000000000000000000000000000000000000000000000000008152600401611a429061319c565b60405180910390fd5b83835f015f6101000a81548173ffffffffffffffffffffffffffffffffffffffff021916908373ffffffffffffffffffffffffffffffffffffffff1602179055508373ffffffffffffffffffffffffffffffffffffffff16857f44fd60df9b05a22172cc43446c2ff1abb74d6c6ce938acd70bd3ee1ea2bf595d60405160405180910390a35050505050565b5f60065f8581526020019081526020015f2090505f5f611af783336125cc565b9150915080611b3b576040517f08c379a0000000000000000000000000000000000000000000000000000000008152600401611b329061319c565b60405180910390fd5b5f836005018381548110611b5257611b51613055565b5b905f5260205f20906003020190505f6004811115611b7357611b72612b27565b5b846004015f9054906101000a900460ff166004811115611b9657611b95612b27565b5b14611bd6576040517f08c379a0000000000000000000000000000000000000000000000000000000008152600401611bcd906135c5565b60405180910390fd5b8473ffffffffffffffffffffffffffffffffffffffff16846001015f9054906101000a900473ffffffffffffffffffffffffffffffffffffffff1673ffffffffffffffffffffffffffffffffffffffff1614611c67576040517f08c379a0000000000000000000000000000000000000000000000000000000008152600401611c5e9061362d565b60405180910390fd5b5f73ffffffffffffffffffffffffffffffffffffffff16815f015f9054906101000a900473ffffffffffffffffffffffffffffffffffffffff1673ffffffffffffffffffffffffffffffffffffffff1603611cf7576040517f08c379a0000000000000000000000000000000000000000000000000000000008152600401611cee9061319c565b60405180910390fd5b5f816001015414611d3d576040517f08c379a0000000000000000000000000000000000000000000000000000000008152600401611d3490613695565b60405180910390fd5b8360030154861015611d84576040517f08c379a0000000000000000000000000000000000000000000000000000000008152600401611d7b906136fd565b60405180910390fd5b611e0d33308860045f8a73ffffffffffffffffffffffffffffffffffffffff1673ffffffffffffffffffffffffffffffffffffffff1681526020019081526020015f205f9054906101000a900473ffffffffffffffffffffffffffffffffffffffff1673ffffffffffffffffffffffffffffffffffffffff166124cb909392919063ffffffff16565b85816001018190555085846002015f828254611e299190612f73565b925050819055505f600190505f5f90505b8560050180549050811015611e8f578560030154866005018281548110611e6457611e63613055565b5b905f5260205f209060030201600101541015611e82575f9150611e8f565b8080600101915050611e3a565b508015611efc576001856004015f6101000a81548160ff02191690836004811115611ebd57611ebc612b27565b5b0217905550877f9bd6564623fb7c831af9798510036a9c2d1494d6a70fb5517e31544b00b01eb46001604051611ef391906133f4565b60405180910390a25b3373ffffffffffffffffffffffffffffffffffffffff16887fb588749a0bc7dad21f5e6d249c0754fdb7b258080ebfeecb29265842c864955589604051611f43919061298f565b60405180910390a35050505050505050565b6003602052805f5260405f205f915090505481565b6060805f60058054905090508067ffffffffffffffff811115611f9057611f8f6131ba565b5b604051908082528060200260200182016040528015611fbe5781602001602082028036833780820191505090505b5092508067ffffffffffffffff811115611fdb57611fda6131ba565b5b6040519080825280602002602001820160405280156120095781602001602082028036833780820191505090505b5091505f5f90505b8181101561215e575f6005828154811061202e5761202d613055565b5b905f5260205f20015f9054906101000a900473ffffffffffffffffffffffffffffffffffffffff1690508085838151811061206c5761206b613055565b5b602002602001019073ffffffffffffffffffffffffffffffffffffffff16908173ffffffffffffffffffffffffffffffffffffffff168152505060045f8273ffffffffffffffffffffffffffffffffffffffff1673ffffffffffffffffffffffffffffffffffffffff1681526020019081526020015f205f9054906101000a900473ffffffffffffffffffffffffffffffffffffffff1684838151811061211657612115613055565b5b602002602001019073ffffffffffffffffffffffffffffffffffffffff16908173ffffffffffffffffffffffffffffffffffffffff1681525050508080600101915050612011565b50509091565b60025f9054906101000a900473ffffffffffffffffffffffffffffffffffffffff1673ffffffffffffffffffffffffffffffffffffffff163373ffffffffffffffffffffffffffffffffffffffff16146121f3576040517f08c379a00000000000000000000000000000000000000000000000000000000081526004016121ea906130cc565b60405180910390fd5b8060045f8373ffffffffffffffffffffffffffffffffffffffff1673ffffffffffffffffffffffffffffffffffffffff1681526020019081526020015f205f6101000a81548173ffffffffffffffffffffffffffffffffffffffff021916908373ffffffffffffffffffffffffffffffffffffffff160217905550600581908060018154018082558091505060019003905f5260205f20015f9091909190916101000a81548173ffffffffffffffffffffffffffffffffffffffff021916908373ffffffffffffffffffffffffffffffffffffffff16021790555050565b60015481565b60025f9054906101000a900473ffffffffffffffffffffffffffffffffffffffff1673ffffffffffffffffffffffffffffffffffffffff163373ffffffffffffffffffffffffffffffffffffffff1614612366576040517f08c379a000000000000000000000000000000000000000000000000000000000815260040161235d906130cc565b60405180910390fd5b5f8111801561237757506127108111155b6123b6576040517f08c379a00000000000000000000000000000000000000000000000000000000081526004016123ad9061378b565b60405180910390fd5b8060018190555050565b600a81565b60025f9054906101000a900473ffffffffffffffffffffffffffffffffffffffff1673ffffffffffffffffffffffffffffffffffffffff163373ffffffffffffffffffffffffffffffffffffffff1614612454576040517f08c379a000000000000000000000000000000000000000000000000000000000815260040161244b906130cc565b60405180910390fd5b8060065f8481526020019081526020015f206004015f6101000a81548160ff0219169083600481111561248a57612489612b27565b5b0217905550817f9bd6564623fb7c831af9798510036a9c2d1494d6a70fb5517e31544b00b01eb4826040516124bf91906133f4565b60405180910390a25050565b612547848573ffffffffffffffffffffffffffffffffffffffff166323b872dd868686604051602401612500939291906137a9565b604051602081830303815290604052915060e01b6020820180517bffffffffffffffffffffffffffffffffffffffffffffffffffffffff83818316178352505050506126ce565b50505050565b6125c7838473ffffffffffffffffffffffffffffffffffffffff1663a9059cbb85856040516024016125809291906137de565b604051602081830303815290604052915060e01b6020820180517bffffffffffffffffffffffffffffffffffffffffffffffffffffffff83818316178352505050506126ce565b505050565b5f5f5f5f90505b8460050180549050811015612672578373ffffffffffffffffffffffffffffffffffffffff1685600501828154811061260f5761260e613055565b5b905f5260205f2090600302015f015f9054906101000a900473ffffffffffffffffffffffffffffffffffffffff1673ffffffffffffffffffffffffffffffffffffffff160361266557806001925092505061267a565b80806001019150506125d3565b505f5f915091505b9250929050565b60025f54036126bc576040517f3ee5aeb500000000000000000000000000000000000000000000000000000000815260040160405180910390fd5b60025f81905550565b60015f81905550565b5f5f60205f8451602086015f885af1806126ed576040513d5f823e3d81fd5b3d92505f519150505f8214612706576001811415612721565b5f8473ffffffffffffffffffffffffffffffffffffffff163b145b1561276357836040517f5274afe700000000000000000000000000000000000000000000000000000000815260040161275a9190612a0d565b60405180910390fd5b50505050565b5080545f8255905f5260205f209081019061278491906127a8565b50565b5080545f8255600302905f5260205f20908101906127a591906127c3565b50565b5b808211156127bf575f815f9055506001016127a9565b5090565b5b80821115612815575f5f82015f6101000a81549073ffffffffffffffffffffffffffffffffffffffff0219169055600182015f9055600282015f6101000a81549060ff0219169055506003016127c4565b5090565b5f5ffd5b5f5ffd5b5f5ffd5b5f5ffd5b5f5ffd5b5f5f83601f84011261284257612841612821565b5b8235905067ffffffffffffffff81111561285f5761285e612825565b5b60208301915083602082028301111561287b5761287a612829565b5b9250929050565b5f819050919050565b61289481612882565b811461289e575f5ffd5b50565b5f813590506128af8161288b565b92915050565b5f73ffffffffffffffffffffffffffffffffffffffff82169050919050565b5f6128de826128b5565b9050919050565b6128ee816128d4565b81146128f8575f5ffd5b50565b5f81359050612909816128e5565b92915050565b5f5f5f5f6060858703121561292757612926612819565b5b5f85013567ffffffffffffffff8111156129445761294361281d565b5b6129508782880161282d565b94509450506020612963878288016128a1565b9250506040612974878288016128fb565b91505092959194509250565b61298981612882565b82525050565b5f6020820190506129a25f830184612980565b92915050565b5f602082840312156129bd576129bc612819565b5b5f6129ca848285016128fb565b91505092915050565b5f602082840312156129e8576129e7612819565b5b5f6129f5848285016128a1565b91505092915050565b612a07816128d4565b82525050565b5f602082019050612a205f8301846129fe565b92915050565b5f5f60408385031215612a3c57612a3b612819565b5b5f612a49858286016128a1565b9250506020612a5a858286016128fb565b9150509250929050565b5f8115159050919050565b612a7881612a64565b82525050565b5f606082019050612a915f8301866129fe565b612a9e6020830185612980565b612aab6040830184612a6f565b949350505050565b5f819050919050565b5f612ad6612ad1612acc846128b5565b612ab3565b6128b5565b9050919050565b5f612ae782612abc565b9050919050565b5f612af882612add565b9050919050565b612b0881612aee565b82525050565b5f602082019050612b215f830184612aff565b92915050565b7f4e487b71000000000000000000000000000000000000000000000000000000005f52602160045260245ffd5b60058110612b6557612b64612b27565b5b50565b5f819050612b7582612b54565b919050565b5f612b8482612b68565b9050919050565b612b9481612b7a565b82525050565b5f81519050919050565b5f82825260208201905092915050565b5f819050602082019050919050565b612bcc816128d4565b82525050565b5f612bdd8383612bc3565b60208301905092915050565b5f602082019050919050565b5f612bff82612b9a565b612c098185612ba4565b9350612c1483612bb4565b805f5b83811015612c44578151612c2b8882612bd2565b9750612c3683612be9565b925050600181019050612c17565b5085935050505092915050565b5f60a082019050612c645f830188612b8b565b612c7160208301876129fe565b612c7e6040830186612980565b612c8b6060830185612980565b8181036080830152612c9d8184612bf5565b90509695505050505050565b5f81519050919050565b5f82825260208201905092915050565b5f819050602082019050919050565b612cdb81612882565b82525050565b5f612cec8383612cd2565b60208301905092915050565b5f602082019050919050565b5f612d0e82612ca9565b612d188185612cb3565b9350612d2383612cc3565b805f5b83811015612d53578151612d3a8882612ce1565b9750612d4583612cf8565b925050600181019050612d26565b5085935050505092915050565b5f6020820190508181035f830152612d788184612d04565b905092915050565b5f5f5f60608486031215612d9757612d96612819565b5b5f612da4868287016128a1565b9350506020612db5868287016128a1565b9250506040612dc6868287016128fb565b9150509250925092565b5f6040820190508181035f830152612de88185612bf5565b90508181036020830152612dfc8184612bf5565b90509392505050565b60058110612e11575f5ffd5b50565b5f81359050612e2281612e05565b92915050565b5f5f60408385031215612e3e57612e3d612819565b5b5f612e4b858286016128a1565b9250506020612e5c85828601612e14565b9150509250929050565b5f82825260208201905092915050565b7f496e76616c696420746f6b656e000000000000000000000000000000000000005f82015250565b5f612eaa600d83612e66565b9150612eb582612e76565b602082019050919050565b5f6020820190508181035f830152612ed781612e9e565b9050919050565b7f5374616b65206d7573742062652067726561746572207468616e2030000000005f82015250565b5f612f12601c83612e66565b9150612f1d82612ede565b602082019050919050565b5f6020820190508181035f830152612f3f81612f06565b9050919050565b7f4e487b71000000000000000000000000000000000000000000000000000000005f52601160045260245ffd5b5f612f7d82612882565b9150612f8883612882565b9250828201905080821115612fa057612f9f612f46565b5b92915050565b7f546f6f206d616e79207061727469636970616e747300000000000000000000005f82015250565b5f612fda601583612e66565b9150612fe582612fa6565b602082019050919050565b5f6020820190508181035f83015261300781612fce565b9050919050565b5f61301882612882565b91507fffffffffffffffffffffffffffffffffffffffffffffffffffffffffffffffff820361304a57613049612f46565b5b600182019050919050565b7f4e487b71000000000000000000000000000000000000000000000000000000005f52603260045260245ffd5b7f4f6e6c79206f776e65722063616e2063616c6c207468697300000000000000005f82015250565b5f6130b6601883612e66565b91506130c182613082565b602082019050919050565b5f6020820190508181035f8301526130e3816130aa565b9050919050565b7f4e6f7468696e6720746f207769746864726177000000000000000000000000005f82015250565b5f61311e601383612e66565b9150613129826130ea565b602082019050919050565b5f6020820190508181035f83015261314b81613112565b9050919050565b7f4e6f742061207061727469636970616e740000000000000000000000000000005f82015250565b5f613186601183612e66565b915061319182613152565b602082019050919050565b5f6020820190508181035f8301526131b38161317a565b9050919050565b7f4e487b71000000000000000000000000000000000000000000000000000000005f52604160045260245ffd5b5f81905092915050565b6131fa81612882565b82525050565b5f61320b83836131f1565b60208301905092915050565b5f61322182612ca9565b61322b81856131e7565b935061323683612cc3565b805f5b8381101561326657815161324d8882613200565b975061325883612cf8565b925050600181019050613239565b5085935050505092915050565b5f61327e8284613217565b915081905092915050565b7f5761676572206e6f742063616e63656c6c6564000000000000000000000000005f82015250565b5f6132bd601383612e66565b91506132c882613289565b602082019050919050565b5f6020820190508181035f8301526132ea816132b1565b9050919050565b7f416c726561647920636c61696d656400000000000000000000000000000000005f82015250565b5f613325600f83612e66565b9150613330826132f1565b602082019050919050565b5f6020820190508181035f83015261335281613319565b9050919050565b7f436c61696d73206e6f7420616c6c6f77656400000000000000000000000000005f82015250565b5f61338d601283612e66565b915061339882613359565b602082019050919050565b5f6020820190508181035f8301526133ba81613381565b9050919050565b5f6133cb82612882565b91506133d683612882565b92508282039050818111156133ee576133ed612f46565b5b92915050565b5f6020820190506134075f830184612b8b565b92915050565b7f4e6f742077696e6e6572000000000000000000000000000000000000000000005f82015250565b5f613441600a83612e66565b915061344c8261340d565b602082019050919050565b5f6020820190508181035f83015261346e81613435565b9050919050565b7f5761676572206e6f7420636f6d706c65746564000000000000000000000000005f82015250565b5f6134a9601383612e66565b91506134b482613475565b602082019050919050565b5f6020820190508181035f8301526134d68161349d565b9050919050565b5f6134e782612882565b91506134f283612882565b925082820261350081612882565b9150828204841483151761351757613516612f46565b5b5092915050565b7f4e487b71000000000000000000000000000000000000000000000000000000005f52601260045260245ffd5b5f61355582612882565b915061356083612882565b9250826135705761356f61351e565b5b828204905092915050565b7f5761676572206e6f7420616374697665000000000000000000000000000000005f82015250565b5f6135af601083612e66565b91506135ba8261357b565b602082019050919050565b5f6020820190508181035f8301526135dc816135a3565b9050919050565b7f546f6b656e206d69736d617463680000000000000000000000000000000000005f82015250565b5f613617600e83612e66565b9150613622826135e3565b602082019050919050565b5f6020820190508181035f8301526136448161360b565b9050919050565b7f416c7265616479206163636570746564000000000000000000000000000000005f82015250565b5f61367f601083612e66565b915061368a8261364b565b602082019050919050565b5f6020820190508181035f8301526136ac81613673565b9050919050565b7f496e73756666696369656e74207374616b6500000000000000000000000000005f82015250565b5f6136e7601283612e66565b91506136f2826136b3565b602082019050919050565b5f6020820190508181035f830152613714816136db565b9050919050565b7f426173697320706f696e7473206d757374206265206265747765656e203120615f8201527f6e642031302c3030300000000000000000000000000000000000000000000000602082015250565b5f613775602983612e66565b91506137808261371b565b604082019050919050565b5f6020820190508181035f8301526137a281613769565b9050919050565b5f6060820190506137bc5f8301866129fe565b6137c960208301856129fe565b6137d66040830184612980565b949350505050565b5f6040820190506137f15f8301856129fe565b6137fe6020830184612980565b939250505056fea264697066735822122076c2ac800397a6b813b6428df579a035d8c6736f172e6f20e4fa717b7afe16d364736f6c634300081d0033","linkReferences":{}},"methodIdentifiers":{"COMMISSION_BASIS_POINTS()":"de1f6ea8","MAX_PARTICIPANTS()":"f3baf070","acceptWager(uint256,uint256,address)":"b12b3f91","addToken(address)":"d48bfca7","claimRefund(uint256)":"5b7baf64","claimWinnings(uint256)":"677bd9ff","commissionBalances(address)":"b2642987","createWager(address[],uint256,address)":"05385fe9","deleteCompletedWagers()":"3dc44c0b","getAllWagers()":"7fed58c7","getParticipant(uint256,address)":"35f3ad7a","getSupportedTokens()":"d3c7c2c7","getWager(uint256)":"7a2756f2","owner()":"8da5cb5b","setCommissionBasisPoints(uint256)":"f00f6921","setWagerStatus(uint256,uint8)":"f84cc579","setWinner(uint256,address)":"9c623683","supportedTokens(address)":"68c4ac26","supportedTokensArray(uint256)":"2e9b3201","withdrawCommission(address)":"16c58d04"},"id":23}